ARM GAS  C:\Users\ADMINI~1\AppData\Local\Temp\ccn01HNB.s 			page 1


   1              		.cpu cortex-m0
   2              		.fpu softvfp
   3              		.eabi_attribute 20, 1
   4              		.eabi_attribute 21, 1
   5              		.eabi_attribute 23, 3
   6              		.eabi_attribute 24, 1
   7              		.eabi_attribute 25, 1
   8              		.eabi_attribute 26, 1
   9              		.eabi_attribute 30, 6
  10              		.eabi_attribute 34, 0
  11              		.eabi_attribute 18, 4
  12              		.code	16
  13              		.file	"heap_2.c"
  14              		.text
  15              	.Ltext0:
  16              		.cfi_sections	.debug_frame
  17              		.bss
  18              		.align	2
  19              	ucHeap:
  20 0000 00000000 		.space	8192
  20      00000000 
  20      00000000 
  20      00000000 
  20      00000000 
  21              		.section	.rodata
  22              		.align	1
  23              		.type	heapSTRUCT_SIZE, %object
  24              		.size	heapSTRUCT_SIZE, 2
  25              	heapSTRUCT_SIZE:
  26 0000 0800     		.short	8
  27              		.bss
  28              		.align	2
  29              	xStart:
  30 2000 00000000 		.space	8
  30      00000000 
  31              		.align	2
  32              	xEnd:
  33 2008 00000000 		.space	8
  33      00000000 
  34              		.data
  35              		.align	2
  36              		.type	xFreeBytesRemaining, %object
  37              		.size	xFreeBytesRemaining, 4
  38              	xFreeBytesRemaining:
  39 0000 F81F0000 		.word	8184
  40              		.section	.text.pvPortMalloc,"ax",%progbits
  41              		.align	2
  42              		.global	pvPortMalloc
  43              		.code	16
  44              		.thumb_func
  45              		.type	pvPortMalloc, %function
  46              	pvPortMalloc:
  47              	.LFB0:
  48              		.file 1 ".\\freertos\\portable\\heap_2.c"
   1:.\freertos\portable/heap_2.c **** /*
   2:.\freertos\portable/heap_2.c ****     FreeRTOS V9.0.0rc1 - Copyright (C) 2016 Real Time Engineers Ltd.
   3:.\freertos\portable/heap_2.c ****     All rights reserved
ARM GAS  C:\Users\ADMINI~1\AppData\Local\Temp\ccn01HNB.s 			page 2


   4:.\freertos\portable/heap_2.c **** 
   5:.\freertos\portable/heap_2.c ****     VISIT http://www.FreeRTOS.org TO ENSURE YOU ARE USING THE LATEST VERSION.
   6:.\freertos\portable/heap_2.c **** 
   7:.\freertos\portable/heap_2.c ****     This file is part of the FreeRTOS distribution.
   8:.\freertos\portable/heap_2.c **** 
   9:.\freertos\portable/heap_2.c ****     FreeRTOS is free software; you can redistribute it and/or modify it under
  10:.\freertos\portable/heap_2.c ****     the terms of the GNU General Public License (version 2) as published by the
  11:.\freertos\portable/heap_2.c ****     Free Software Foundation >>>> AND MODIFIED BY <<<< the FreeRTOS exception.
  12:.\freertos\portable/heap_2.c **** 
  13:.\freertos\portable/heap_2.c ****     ***************************************************************************
  14:.\freertos\portable/heap_2.c ****     >>!   NOTE: The modification to the GPL is included to allow you to     !<<
  15:.\freertos\portable/heap_2.c ****     >>!   distribute a combined work that includes FreeRTOS without being   !<<
  16:.\freertos\portable/heap_2.c ****     >>!   obliged to provide the source code for proprietary components     !<<
  17:.\freertos\portable/heap_2.c ****     >>!   outside of the FreeRTOS kernel.                                   !<<
  18:.\freertos\portable/heap_2.c ****     ***************************************************************************
  19:.\freertos\portable/heap_2.c **** 
  20:.\freertos\portable/heap_2.c ****     FreeRTOS is distributed in the hope that it will be useful, but WITHOUT ANY
  21:.\freertos\portable/heap_2.c ****     WARRANTY; without even the implied warranty of MERCHANTABILITY or FITNESS
  22:.\freertos\portable/heap_2.c ****     FOR A PARTICULAR PURPOSE.  Full license text is available on the following
  23:.\freertos\portable/heap_2.c ****     link: http://www.freertos.org/a00114.html
  24:.\freertos\portable/heap_2.c **** 
  25:.\freertos\portable/heap_2.c ****     ***************************************************************************
  26:.\freertos\portable/heap_2.c ****      *                                                                       *
  27:.\freertos\portable/heap_2.c ****      *    FreeRTOS provides completely free yet professionally developed,    *
  28:.\freertos\portable/heap_2.c ****      *    robust, strictly quality controlled, supported, and cross          *
  29:.\freertos\portable/heap_2.c ****      *    platform software that is more than just the market leader, it     *
  30:.\freertos\portable/heap_2.c ****      *    is the industry's de facto standard.                               *
  31:.\freertos\portable/heap_2.c ****      *                                                                       *
  32:.\freertos\portable/heap_2.c ****      *    Help yourself get started quickly while simultaneously helping     *
  33:.\freertos\portable/heap_2.c ****      *    to support the FreeRTOS project by purchasing a FreeRTOS           *
  34:.\freertos\portable/heap_2.c ****      *    tutorial book, reference manual, or both:                          *
  35:.\freertos\portable/heap_2.c ****      *    http://www.FreeRTOS.org/Documentation                              *
  36:.\freertos\portable/heap_2.c ****      *                                                                       *
  37:.\freertos\portable/heap_2.c ****     ***************************************************************************
  38:.\freertos\portable/heap_2.c **** 
  39:.\freertos\portable/heap_2.c ****     http://www.FreeRTOS.org/FAQHelp.html - Having a problem?  Start by reading
  40:.\freertos\portable/heap_2.c ****     the FAQ page "My application does not run, what could be wrong?".  Have you
  41:.\freertos\portable/heap_2.c ****     defined configASSERT()?
  42:.\freertos\portable/heap_2.c **** 
  43:.\freertos\portable/heap_2.c ****     http://www.FreeRTOS.org/support - In return for receiving this top quality
  44:.\freertos\portable/heap_2.c ****     embedded software for free we request you assist our global community by
  45:.\freertos\portable/heap_2.c ****     participating in the support forum.
  46:.\freertos\portable/heap_2.c **** 
  47:.\freertos\portable/heap_2.c ****     http://www.FreeRTOS.org/training - Investing in training allows your team to
  48:.\freertos\portable/heap_2.c ****     be as productive as possible as early as possible.  Now you can receive
  49:.\freertos\portable/heap_2.c ****     FreeRTOS training directly from Richard Barry, CEO of Real Time Engineers
  50:.\freertos\portable/heap_2.c ****     Ltd, and the world's leading authority on the world's leading RTOS.
  51:.\freertos\portable/heap_2.c **** 
  52:.\freertos\portable/heap_2.c ****     http://www.FreeRTOS.org/plus - A selection of FreeRTOS ecosystem products,
  53:.\freertos\portable/heap_2.c ****     including FreeRTOS+Trace - an indispensable productivity tool, a DOS
  54:.\freertos\portable/heap_2.c ****     compatible FAT file system, and our tiny thread aware UDP/IP stack.
  55:.\freertos\portable/heap_2.c **** 
  56:.\freertos\portable/heap_2.c ****     http://www.FreeRTOS.org/labs - Where new FreeRTOS products go to incubate.
  57:.\freertos\portable/heap_2.c ****     Come and try FreeRTOS+TCP, our new open source TCP/IP stack for FreeRTOS.
  58:.\freertos\portable/heap_2.c **** 
  59:.\freertos\portable/heap_2.c ****     http://www.OpenRTOS.com - Real Time Engineers ltd. license FreeRTOS to High
  60:.\freertos\portable/heap_2.c ****     Integrity Systems ltd. to sell under the OpenRTOS brand.  Low cost OpenRTOS
ARM GAS  C:\Users\ADMINI~1\AppData\Local\Temp\ccn01HNB.s 			page 3


  61:.\freertos\portable/heap_2.c ****     licenses offer ticketed support, indemnification and commercial middleware.
  62:.\freertos\portable/heap_2.c **** 
  63:.\freertos\portable/heap_2.c ****     http://www.SafeRTOS.com - High Integrity Systems also provide a safety
  64:.\freertos\portable/heap_2.c ****     engineered and independently SIL3 certified version for use in safety and
  65:.\freertos\portable/heap_2.c ****     mission critical applications that require provable dependability.
  66:.\freertos\portable/heap_2.c **** 
  67:.\freertos\portable/heap_2.c ****     1 tab == 4 spaces!
  68:.\freertos\portable/heap_2.c **** */
  69:.\freertos\portable/heap_2.c **** 
  70:.\freertos\portable/heap_2.c **** /*
  71:.\freertos\portable/heap_2.c ****  * A sample implementation of pvPortMalloc() and vPortFree() that permits
  72:.\freertos\portable/heap_2.c ****  * allocated blocks to be freed, but does not combine adjacent free blocks
  73:.\freertos\portable/heap_2.c ****  * into a single larger block (and so will fragment memory).  See heap_4.c for
  74:.\freertos\portable/heap_2.c ****  * an equivalent that does combine adjacent blocks into single larger blocks.
  75:.\freertos\portable/heap_2.c ****  *
  76:.\freertos\portable/heap_2.c ****  * See heap_1.c, heap_3.c and heap_4.c for alternative implementations, and the
  77:.\freertos\portable/heap_2.c ****  * memory management pages of http://www.FreeRTOS.org for more information.
  78:.\freertos\portable/heap_2.c ****  */
  79:.\freertos\portable/heap_2.c **** #include <stdlib.h>
  80:.\freertos\portable/heap_2.c **** 
  81:.\freertos\portable/heap_2.c **** /* Defining MPU_WRAPPERS_INCLUDED_FROM_API_FILE prevents task.h from redefining
  82:.\freertos\portable/heap_2.c **** all the API functions to use the MPU wrappers.  That should only be done when
  83:.\freertos\portable/heap_2.c **** task.h is included from an application file. */
  84:.\freertos\portable/heap_2.c **** #define MPU_WRAPPERS_INCLUDED_FROM_API_FILE
  85:.\freertos\portable/heap_2.c **** 
  86:.\freertos\portable/heap_2.c **** #include "FreeRTOS.h"
  87:.\freertos\portable/heap_2.c **** #include "task.h"
  88:.\freertos\portable/heap_2.c **** 
  89:.\freertos\portable/heap_2.c **** #undef MPU_WRAPPERS_INCLUDED_FROM_API_FILE
  90:.\freertos\portable/heap_2.c **** 
  91:.\freertos\portable/heap_2.c **** /* A few bytes might be lost to byte aligning the heap start address. */
  92:.\freertos\portable/heap_2.c **** #define configADJUSTED_HEAP_SIZE	( configTOTAL_HEAP_SIZE - portBYTE_ALIGNMENT )
  93:.\freertos\portable/heap_2.c **** 
  94:.\freertos\portable/heap_2.c **** /*
  95:.\freertos\portable/heap_2.c ****  * Initialises the heap structures before their first use.
  96:.\freertos\portable/heap_2.c ****  */
  97:.\freertos\portable/heap_2.c **** static void prvHeapInit( void );
  98:.\freertos\portable/heap_2.c **** 
  99:.\freertos\portable/heap_2.c **** /* Allocate the memory for the heap. */
 100:.\freertos\portable/heap_2.c **** #if( configAPPLICATION_ALLOCATED_HEAP == 1 )
 101:.\freertos\portable/heap_2.c **** 	/* The application writer has already defined the array used for the RTOS
 102:.\freertos\portable/heap_2.c **** 	heap - probably so it can be placed in a special segment or address. */
 103:.\freertos\portable/heap_2.c **** 	extern uint8_t ucHeap[ configTOTAL_HEAP_SIZE ];
 104:.\freertos\portable/heap_2.c **** #else
 105:.\freertos\portable/heap_2.c **** 	static uint8_t ucHeap[ configTOTAL_HEAP_SIZE ];
 106:.\freertos\portable/heap_2.c **** #endif /* configAPPLICATION_ALLOCATED_HEAP */
 107:.\freertos\portable/heap_2.c **** 
 108:.\freertos\portable/heap_2.c **** 
 109:.\freertos\portable/heap_2.c **** /* Define the linked list structure.  This is used to link free blocks in order
 110:.\freertos\portable/heap_2.c **** of their size. */
 111:.\freertos\portable/heap_2.c **** typedef struct A_BLOCK_LINK
 112:.\freertos\portable/heap_2.c **** {
 113:.\freertos\portable/heap_2.c **** 	struct A_BLOCK_LINK *pxNextFreeBlock;	/*<< The next free block in the list. */
 114:.\freertos\portable/heap_2.c **** 	size_t xBlockSize;						/*<< The size of the free block. */
 115:.\freertos\portable/heap_2.c **** } BlockLink_t;
 116:.\freertos\portable/heap_2.c **** 
 117:.\freertos\portable/heap_2.c **** 
ARM GAS  C:\Users\ADMINI~1\AppData\Local\Temp\ccn01HNB.s 			page 4


 118:.\freertos\portable/heap_2.c **** static const uint16_t heapSTRUCT_SIZE	= ( ( sizeof ( BlockLink_t ) + ( portBYTE_ALIGNMENT - 1 ) ) &
 119:.\freertos\portable/heap_2.c **** #define heapMINIMUM_BLOCK_SIZE	( ( size_t ) ( heapSTRUCT_SIZE * 2 ) )
 120:.\freertos\portable/heap_2.c **** 
 121:.\freertos\portable/heap_2.c **** /* Create a couple of list links to mark the start and end of the list. */
 122:.\freertos\portable/heap_2.c **** static BlockLink_t xStart, xEnd;
 123:.\freertos\portable/heap_2.c **** 
 124:.\freertos\portable/heap_2.c **** /* Keeps track of the number of free bytes remaining, but says nothing about
 125:.\freertos\portable/heap_2.c **** fragmentation. */
 126:.\freertos\portable/heap_2.c **** static size_t xFreeBytesRemaining = configADJUSTED_HEAP_SIZE;
 127:.\freertos\portable/heap_2.c **** 
 128:.\freertos\portable/heap_2.c **** /* STATIC FUNCTIONS ARE DEFINED AS MACROS TO MINIMIZE THE FUNCTION CALL DEPTH. */
 129:.\freertos\portable/heap_2.c **** 
 130:.\freertos\portable/heap_2.c **** /*
 131:.\freertos\portable/heap_2.c ****  * Insert a block into the list of free blocks - which is ordered by size of
 132:.\freertos\portable/heap_2.c ****  * the block.  Small blocks at the start of the list and large blocks at the end
 133:.\freertos\portable/heap_2.c ****  * of the list.
 134:.\freertos\portable/heap_2.c ****  */
 135:.\freertos\portable/heap_2.c **** #define prvInsertBlockIntoFreeList( pxBlockToInsert )								\
 136:.\freertos\portable/heap_2.c **** {																					\
 137:.\freertos\portable/heap_2.c **** BlockLink_t *pxIterator;															\
 138:.\freertos\portable/heap_2.c **** size_t xBlockSize;																	\
 139:.\freertos\portable/heap_2.c **** 																					\
 140:.\freertos\portable/heap_2.c **** 	xBlockSize = pxBlockToInsert->xBlockSize;										\
 141:.\freertos\portable/heap_2.c **** 																					\
 142:.\freertos\portable/heap_2.c **** 	/* Iterate through the list until a block is found that has a larger size */	\
 143:.\freertos\portable/heap_2.c **** 	/* than the block we are inserting. */											\
 144:.\freertos\portable/heap_2.c **** 	for( pxIterator = &xStart; pxIterator->pxNextFreeBlock->xBlockSize < xBlockSize; pxIterator = pxIt
 145:.\freertos\portable/heap_2.c **** 	{																				\
 146:.\freertos\portable/heap_2.c **** 		/* There is nothing to do here - just iterate to the correct position. */	\
 147:.\freertos\portable/heap_2.c **** 	}																				\
 148:.\freertos\portable/heap_2.c **** 																					\
 149:.\freertos\portable/heap_2.c **** 	/* Update the list to include the block being inserted in the correct */		\
 150:.\freertos\portable/heap_2.c **** 	/* position. */																	\
 151:.\freertos\portable/heap_2.c **** 	pxBlockToInsert->pxNextFreeBlock = pxIterator->pxNextFreeBlock;					\
 152:.\freertos\portable/heap_2.c **** 	pxIterator->pxNextFreeBlock = pxBlockToInsert;									\
 153:.\freertos\portable/heap_2.c **** }
 154:.\freertos\portable/heap_2.c **** /*-----------------------------------------------------------*/
 155:.\freertos\portable/heap_2.c **** 
 156:.\freertos\portable/heap_2.c **** void *pvPortMalloc( size_t xWantedSize )
 157:.\freertos\portable/heap_2.c **** {
  49              		.loc 1 157 0
  50              		.cfi_startproc
  51 0000 80B5     		push	{r7, lr}
  52              		.cfi_def_cfa_offset 8
  53              		.cfi_offset 7, -8
  54              		.cfi_offset 14, -4
  55 0002 88B0     		sub	sp, sp, #32
  56              		.cfi_def_cfa_offset 40
  57 0004 00AF     		add	r7, sp, #0
  58              		.cfi_def_cfa_register 7
  59 0006 7860     		str	r0, [r7, #4]
 158:.\freertos\portable/heap_2.c **** BlockLink_t *pxBlock, *pxPreviousBlock, *pxNewBlockLink;
 159:.\freertos\portable/heap_2.c **** static BaseType_t xHeapHasBeenInitialised = pdFALSE;
 160:.\freertos\portable/heap_2.c **** void *pvReturn = NULL;
  60              		.loc 1 160 0
  61 0008 0023     		mov	r3, #0
  62 000a 7B61     		str	r3, [r7, #20]
ARM GAS  C:\Users\ADMINI~1\AppData\Local\Temp\ccn01HNB.s 			page 5


 161:.\freertos\portable/heap_2.c **** 
 162:.\freertos\portable/heap_2.c **** 	vTaskSuspendAll();
  63              		.loc 1 162 0
  64 000c FFF7FEFF 		bl	vTaskSuspendAll
 163:.\freertos\portable/heap_2.c **** 	{
 164:.\freertos\portable/heap_2.c **** 		/* If this is the first call to malloc then the heap will require
 165:.\freertos\portable/heap_2.c **** 		initialisation to setup the list of free blocks. */
 166:.\freertos\portable/heap_2.c **** 		if( xHeapHasBeenInitialised == pdFALSE )
  65              		.loc 1 166 0
  66 0010 3F4B     		ldr	r3, .L13
  67 0012 1B68     		ldr	r3, [r3]
  68 0014 002B     		cmp	r3, #0
  69 0016 04D1     		bne	.L2
 167:.\freertos\portable/heap_2.c **** 		{
 168:.\freertos\portable/heap_2.c **** 			prvHeapInit();
  70              		.loc 1 168 0
  71 0018 FFF7FEFF 		bl	prvHeapInit
 169:.\freertos\portable/heap_2.c **** 			xHeapHasBeenInitialised = pdTRUE;
  72              		.loc 1 169 0
  73 001c 3C4B     		ldr	r3, .L13
  74 001e 0122     		mov	r2, #1
  75 0020 1A60     		str	r2, [r3]
  76              	.L2:
 170:.\freertos\portable/heap_2.c **** 		}
 171:.\freertos\portable/heap_2.c **** 
 172:.\freertos\portable/heap_2.c **** 		/* The wanted size is increased so it can contain a BlockLink_t
 173:.\freertos\portable/heap_2.c **** 		structure in addition to the requested amount of bytes. */
 174:.\freertos\portable/heap_2.c **** 		if( xWantedSize > 0 )
  77              		.loc 1 174 0
  78 0022 7B68     		ldr	r3, [r7, #4]
  79 0024 002B     		cmp	r3, #0
  80 0026 0DD0     		beq	.L3
 175:.\freertos\portable/heap_2.c **** 		{
 176:.\freertos\portable/heap_2.c **** 			xWantedSize += heapSTRUCT_SIZE;
  81              		.loc 1 176 0
  82 0028 0823     		mov	r3, #8
  83 002a 1A1C     		mov	r2, r3
  84 002c 7B68     		ldr	r3, [r7, #4]
  85 002e 9B18     		add	r3, r3, r2
  86 0030 7B60     		str	r3, [r7, #4]
 177:.\freertos\portable/heap_2.c **** 
 178:.\freertos\portable/heap_2.c **** 			/* Ensure that blocks are always aligned to the required number of bytes. */
 179:.\freertos\portable/heap_2.c **** 			if( ( xWantedSize & portBYTE_ALIGNMENT_MASK ) != 0 )
  87              		.loc 1 179 0
  88 0032 7B68     		ldr	r3, [r7, #4]
  89 0034 0722     		mov	r2, #7
  90 0036 1340     		and	r3, r2
  91 0038 04D0     		beq	.L3
 180:.\freertos\portable/heap_2.c **** 			{
 181:.\freertos\portable/heap_2.c **** 				/* Byte alignment required. */
 182:.\freertos\portable/heap_2.c **** 				xWantedSize += ( portBYTE_ALIGNMENT - ( xWantedSize & portBYTE_ALIGNMENT_MASK ) );
  92              		.loc 1 182 0
  93 003a 7B68     		ldr	r3, [r7, #4]
  94 003c 0722     		mov	r2, #7
  95 003e 9343     		bic	r3, r2
  96 0040 0833     		add	r3, r3, #8
  97 0042 7B60     		str	r3, [r7, #4]
ARM GAS  C:\Users\ADMINI~1\AppData\Local\Temp\ccn01HNB.s 			page 6


  98              	.L3:
 183:.\freertos\portable/heap_2.c **** 			}
 184:.\freertos\portable/heap_2.c **** 		}
 185:.\freertos\portable/heap_2.c **** 
 186:.\freertos\portable/heap_2.c **** 		if( ( xWantedSize > 0 ) && ( xWantedSize < configADJUSTED_HEAP_SIZE ) )
  99              		.loc 1 186 0
 100 0044 7B68     		ldr	r3, [r7, #4]
 101 0046 002B     		cmp	r3, #0
 102 0048 56D0     		beq	.L4
 103              		.loc 1 186 0 is_stmt 0 discriminator 1
 104 004a 7B68     		ldr	r3, [r7, #4]
 105 004c 314A     		ldr	r2, .L13+4
 106 004e 9342     		cmp	r3, r2
 107 0050 52D8     		bhi	.L4
 187:.\freertos\portable/heap_2.c **** 		{
 188:.\freertos\portable/heap_2.c **** 			/* Blocks are stored in byte order - traverse the list from the start
 189:.\freertos\portable/heap_2.c **** 			(smallest) block until one of adequate size is found. */
 190:.\freertos\portable/heap_2.c **** 			pxPreviousBlock = &xStart;
 108              		.loc 1 190 0 is_stmt 1
 109 0052 314B     		ldr	r3, .L13+8
 110 0054 BB61     		str	r3, [r7, #24]
 191:.\freertos\portable/heap_2.c **** 			pxBlock = xStart.pxNextFreeBlock;
 111              		.loc 1 191 0
 112 0056 304B     		ldr	r3, .L13+8
 113 0058 1B68     		ldr	r3, [r3]
 114 005a FB61     		str	r3, [r7, #28]
 192:.\freertos\portable/heap_2.c **** 			while( ( pxBlock->xBlockSize < xWantedSize ) && ( pxBlock->pxNextFreeBlock != NULL ) )
 115              		.loc 1 192 0
 116 005c 04E0     		b	.L5
 117              	.L7:
 193:.\freertos\portable/heap_2.c **** 			{
 194:.\freertos\portable/heap_2.c **** 				pxPreviousBlock = pxBlock;
 118              		.loc 1 194 0
 119 005e FB69     		ldr	r3, [r7, #28]
 120 0060 BB61     		str	r3, [r7, #24]
 195:.\freertos\portable/heap_2.c **** 				pxBlock = pxBlock->pxNextFreeBlock;
 121              		.loc 1 195 0
 122 0062 FB69     		ldr	r3, [r7, #28]
 123 0064 1B68     		ldr	r3, [r3]
 124 0066 FB61     		str	r3, [r7, #28]
 125              	.L5:
 192:.\freertos\portable/heap_2.c **** 			while( ( pxBlock->xBlockSize < xWantedSize ) && ( pxBlock->pxNextFreeBlock != NULL ) )
 126              		.loc 1 192 0
 127 0068 FB69     		ldr	r3, [r7, #28]
 128 006a 5A68     		ldr	r2, [r3, #4]
 129 006c 7B68     		ldr	r3, [r7, #4]
 130 006e 9A42     		cmp	r2, r3
 131 0070 03D2     		bcs	.L6
 192:.\freertos\portable/heap_2.c **** 			while( ( pxBlock->xBlockSize < xWantedSize ) && ( pxBlock->pxNextFreeBlock != NULL ) )
 132              		.loc 1 192 0 is_stmt 0 discriminator 1
 133 0072 FB69     		ldr	r3, [r7, #28]
 134 0074 1B68     		ldr	r3, [r3]
 135 0076 002B     		cmp	r3, #0
 136 0078 F1D1     		bne	.L7
 137              	.L6:
 196:.\freertos\portable/heap_2.c **** 			}
 197:.\freertos\portable/heap_2.c **** 
ARM GAS  C:\Users\ADMINI~1\AppData\Local\Temp\ccn01HNB.s 			page 7


 198:.\freertos\portable/heap_2.c **** 			/* If we found the end marker then a block of adequate size was not found. */
 199:.\freertos\portable/heap_2.c **** 			if( pxBlock != &xEnd )
 138              		.loc 1 199 0 is_stmt 1
 139 007a FA69     		ldr	r2, [r7, #28]
 140 007c 274B     		ldr	r3, .L13+12
 141 007e 9A42     		cmp	r2, r3
 142 0080 3AD0     		beq	.L4
 200:.\freertos\portable/heap_2.c **** 			{
 201:.\freertos\portable/heap_2.c **** 				/* Return the memory space - jumping over the BlockLink_t structure
 202:.\freertos\portable/heap_2.c **** 				at its start. */
 203:.\freertos\portable/heap_2.c **** 				pvReturn = ( void * ) ( ( ( uint8_t * ) pxPreviousBlock->pxNextFreeBlock ) + heapSTRUCT_SIZE );
 143              		.loc 1 203 0
 144 0082 BB69     		ldr	r3, [r7, #24]
 145 0084 1B68     		ldr	r3, [r3]
 146 0086 0822     		mov	r2, #8
 147 0088 9B18     		add	r3, r3, r2
 148 008a 7B61     		str	r3, [r7, #20]
 204:.\freertos\portable/heap_2.c **** 
 205:.\freertos\portable/heap_2.c **** 				/* This block is being returned for use so must be taken out of the
 206:.\freertos\portable/heap_2.c **** 				list of free blocks. */
 207:.\freertos\portable/heap_2.c **** 				pxPreviousBlock->pxNextFreeBlock = pxBlock->pxNextFreeBlock;
 149              		.loc 1 207 0
 150 008c FB69     		ldr	r3, [r7, #28]
 151 008e 1A68     		ldr	r2, [r3]
 152 0090 BB69     		ldr	r3, [r7, #24]
 153 0092 1A60     		str	r2, [r3]
 208:.\freertos\portable/heap_2.c **** 
 209:.\freertos\portable/heap_2.c **** 				/* If the block is larger than required it can be split into two. */
 210:.\freertos\portable/heap_2.c **** 				if( ( pxBlock->xBlockSize - xWantedSize ) > heapMINIMUM_BLOCK_SIZE )
 154              		.loc 1 210 0
 155 0094 FB69     		ldr	r3, [r7, #28]
 156 0096 5A68     		ldr	r2, [r3, #4]
 157 0098 7B68     		ldr	r3, [r7, #4]
 158 009a D31A     		sub	r3, r2, r3
 159 009c 0822     		mov	r2, #8
 160 009e 5200     		lsl	r2, r2, #1
 161 00a0 9342     		cmp	r3, r2
 162 00a2 22D9     		bls	.L8
 211:.\freertos\portable/heap_2.c **** 				{
 212:.\freertos\portable/heap_2.c **** 					/* This block is to be split into two.  Create a new block
 213:.\freertos\portable/heap_2.c **** 					following the number of bytes requested. The void cast is
 214:.\freertos\portable/heap_2.c **** 					used to prevent byte alignment warnings from the compiler. */
 215:.\freertos\portable/heap_2.c **** 					pxNewBlockLink = ( void * ) ( ( ( uint8_t * ) pxBlock ) + xWantedSize );
 163              		.loc 1 215 0
 164 00a4 FA69     		ldr	r2, [r7, #28]
 165 00a6 7B68     		ldr	r3, [r7, #4]
 166 00a8 D318     		add	r3, r2, r3
 167 00aa FB60     		str	r3, [r7, #12]
 216:.\freertos\portable/heap_2.c **** 
 217:.\freertos\portable/heap_2.c **** 					/* Calculate the sizes of two blocks split from the single
 218:.\freertos\portable/heap_2.c **** 					block. */
 219:.\freertos\portable/heap_2.c **** 					pxNewBlockLink->xBlockSize = pxBlock->xBlockSize - xWantedSize;
 168              		.loc 1 219 0
 169 00ac FB69     		ldr	r3, [r7, #28]
 170 00ae 5A68     		ldr	r2, [r3, #4]
 171 00b0 7B68     		ldr	r3, [r7, #4]
 172 00b2 D21A     		sub	r2, r2, r3
ARM GAS  C:\Users\ADMINI~1\AppData\Local\Temp\ccn01HNB.s 			page 8


 173 00b4 FB68     		ldr	r3, [r7, #12]
 174 00b6 5A60     		str	r2, [r3, #4]
 220:.\freertos\portable/heap_2.c **** 					pxBlock->xBlockSize = xWantedSize;
 175              		.loc 1 220 0
 176 00b8 FB69     		ldr	r3, [r7, #28]
 177 00ba 7A68     		ldr	r2, [r7, #4]
 178 00bc 5A60     		str	r2, [r3, #4]
 179              	.LBB2:
 221:.\freertos\portable/heap_2.c **** 
 222:.\freertos\portable/heap_2.c **** 					/* Insert the new block into the list of free blocks. */
 223:.\freertos\portable/heap_2.c **** 					prvInsertBlockIntoFreeList( ( pxNewBlockLink ) );
 180              		.loc 1 223 0
 181 00be FB68     		ldr	r3, [r7, #12]
 182 00c0 5B68     		ldr	r3, [r3, #4]
 183 00c2 BB60     		str	r3, [r7, #8]
 184 00c4 144B     		ldr	r3, .L13+8
 185 00c6 3B61     		str	r3, [r7, #16]
 186 00c8 02E0     		b	.L9
 187              	.L10:
 188              		.loc 1 223 0 is_stmt 0 discriminator 3
 189 00ca 3B69     		ldr	r3, [r7, #16]
 190 00cc 1B68     		ldr	r3, [r3]
 191 00ce 3B61     		str	r3, [r7, #16]
 192              	.L9:
 193              		.loc 1 223 0 discriminator 1
 194 00d0 3B69     		ldr	r3, [r7, #16]
 195 00d2 1B68     		ldr	r3, [r3]
 196 00d4 5A68     		ldr	r2, [r3, #4]
 197 00d6 BB68     		ldr	r3, [r7, #8]
 198 00d8 9A42     		cmp	r2, r3
 199 00da F6D3     		bcc	.L10
 200              		.loc 1 223 0 discriminator 4
 201 00dc 3B69     		ldr	r3, [r7, #16]
 202 00de 1A68     		ldr	r2, [r3]
 203 00e0 FB68     		ldr	r3, [r7, #12]
 204 00e2 1A60     		str	r2, [r3]
 205 00e4 3B69     		ldr	r3, [r7, #16]
 206 00e6 FA68     		ldr	r2, [r7, #12]
 207 00e8 1A60     		str	r2, [r3]
 208              	.L8:
 209              	.LBE2:
 224:.\freertos\portable/heap_2.c **** 				}
 225:.\freertos\portable/heap_2.c **** 
 226:.\freertos\portable/heap_2.c **** 				xFreeBytesRemaining -= pxBlock->xBlockSize;
 210              		.loc 1 226 0 is_stmt 1
 211 00ea 0D4B     		ldr	r3, .L13+16
 212 00ec 1A68     		ldr	r2, [r3]
 213 00ee FB69     		ldr	r3, [r7, #28]
 214 00f0 5B68     		ldr	r3, [r3, #4]
 215 00f2 D21A     		sub	r2, r2, r3
 216 00f4 0A4B     		ldr	r3, .L13+16
 217 00f6 1A60     		str	r2, [r3]
 218              	.L4:
 227:.\freertos\portable/heap_2.c **** 			}
 228:.\freertos\portable/heap_2.c **** 		}
 229:.\freertos\portable/heap_2.c **** 
 230:.\freertos\portable/heap_2.c **** 		traceMALLOC( pvReturn, xWantedSize );
ARM GAS  C:\Users\ADMINI~1\AppData\Local\Temp\ccn01HNB.s 			page 9


 231:.\freertos\portable/heap_2.c **** 	}
 232:.\freertos\portable/heap_2.c **** 	( void ) xTaskResumeAll();
 219              		.loc 1 232 0
 220 00f8 FFF7FEFF 		bl	xTaskResumeAll
 233:.\freertos\portable/heap_2.c **** 
 234:.\freertos\portable/heap_2.c **** 	#if( configUSE_MALLOC_FAILED_HOOK == 1 )
 235:.\freertos\portable/heap_2.c **** 	{
 236:.\freertos\portable/heap_2.c **** 		if( pvReturn == NULL )
 221              		.loc 1 236 0
 222 00fc 7B69     		ldr	r3, [r7, #20]
 223 00fe 002B     		cmp	r3, #0
 224 0100 01D1     		bne	.L11
 225              	.LBB3:
 237:.\freertos\portable/heap_2.c **** 		{
 238:.\freertos\portable/heap_2.c **** 			extern void vApplicationMallocFailedHook( void );
 239:.\freertos\portable/heap_2.c **** 			vApplicationMallocFailedHook();
 226              		.loc 1 239 0
 227 0102 FFF7FEFF 		bl	vApplicationMallocFailedHook
 228              	.L11:
 229              	.LBE3:
 240:.\freertos\portable/heap_2.c **** 		}
 241:.\freertos\portable/heap_2.c **** 	}
 242:.\freertos\portable/heap_2.c **** 	#endif
 243:.\freertos\portable/heap_2.c **** 
 244:.\freertos\portable/heap_2.c **** 	return pvReturn;
 230              		.loc 1 244 0
 231 0106 7B69     		ldr	r3, [r7, #20]
 245:.\freertos\portable/heap_2.c **** }
 232              		.loc 1 245 0
 233 0108 181C     		mov	r0, r3
 234 010a BD46     		mov	sp, r7
 235 010c 08B0     		add	sp, sp, #32
 236              		@ sp needed
 237 010e 80BD     		pop	{r7, pc}
 238              	.L14:
 239              		.align	2
 240              	.L13:
 241 0110 10200000 		.word	xHeapHasBeenInitialised.5027
 242 0114 F71F0000 		.word	8183
 243 0118 00200000 		.word	xStart
 244 011c 08200000 		.word	xEnd
 245 0120 00000000 		.word	xFreeBytesRemaining
 246              		.cfi_endproc
 247              	.LFE0:
 248              		.size	pvPortMalloc, .-pvPortMalloc
 249              		.section	.text.vPortFree,"ax",%progbits
 250              		.align	2
 251              		.global	vPortFree
 252              		.code	16
 253              		.thumb_func
 254              		.type	vPortFree, %function
 255              	vPortFree:
 256              	.LFB1:
 246:.\freertos\portable/heap_2.c **** /*-----------------------------------------------------------*/
 247:.\freertos\portable/heap_2.c **** 
 248:.\freertos\portable/heap_2.c **** void vPortFree( void *pv )
 249:.\freertos\portable/heap_2.c **** {
ARM GAS  C:\Users\ADMINI~1\AppData\Local\Temp\ccn01HNB.s 			page 10


 257              		.loc 1 249 0
 258              		.cfi_startproc
 259 0000 80B5     		push	{r7, lr}
 260              		.cfi_def_cfa_offset 8
 261              		.cfi_offset 7, -8
 262              		.cfi_offset 14, -4
 263 0002 86B0     		sub	sp, sp, #24
 264              		.cfi_def_cfa_offset 32
 265 0004 00AF     		add	r7, sp, #0
 266              		.cfi_def_cfa_register 7
 267 0006 7860     		str	r0, [r7, #4]
 250:.\freertos\portable/heap_2.c **** uint8_t *puc = ( uint8_t * ) pv;
 268              		.loc 1 250 0
 269 0008 7B68     		ldr	r3, [r7, #4]
 270 000a 3B61     		str	r3, [r7, #16]
 251:.\freertos\portable/heap_2.c **** BlockLink_t *pxLink;
 252:.\freertos\portable/heap_2.c **** 
 253:.\freertos\portable/heap_2.c **** 	if( pv != NULL )
 271              		.loc 1 253 0
 272 000c 7B68     		ldr	r3, [r7, #4]
 273 000e 002B     		cmp	r3, #0
 274 0010 27D0     		beq	.L15
 254:.\freertos\portable/heap_2.c **** 	{
 255:.\freertos\portable/heap_2.c **** 		/* The memory being freed will have an BlockLink_t structure immediately
 256:.\freertos\portable/heap_2.c **** 		before it. */
 257:.\freertos\portable/heap_2.c **** 		puc -= heapSTRUCT_SIZE;
 275              		.loc 1 257 0
 276 0012 0823     		mov	r3, #8
 277 0014 5B42     		neg	r3, r3
 278 0016 3A69     		ldr	r2, [r7, #16]
 279 0018 D318     		add	r3, r2, r3
 280 001a 3B61     		str	r3, [r7, #16]
 258:.\freertos\portable/heap_2.c **** 
 259:.\freertos\portable/heap_2.c **** 		/* This unexpected casting is to keep some compilers from issuing
 260:.\freertos\portable/heap_2.c **** 		byte alignment warnings. */
 261:.\freertos\portable/heap_2.c **** 		pxLink = ( void * ) puc;
 281              		.loc 1 261 0
 282 001c 3B69     		ldr	r3, [r7, #16]
 283 001e FB60     		str	r3, [r7, #12]
 262:.\freertos\portable/heap_2.c **** 
 263:.\freertos\portable/heap_2.c **** 		vTaskSuspendAll();
 284              		.loc 1 263 0
 285 0020 FFF7FEFF 		bl	vTaskSuspendAll
 286              	.LBB4:
 264:.\freertos\portable/heap_2.c **** 		{
 265:.\freertos\portable/heap_2.c **** 			/* Add this block to the list of free blocks. */
 266:.\freertos\portable/heap_2.c **** 			prvInsertBlockIntoFreeList( ( ( BlockLink_t * ) pxLink ) );
 287              		.loc 1 266 0
 288 0024 FB68     		ldr	r3, [r7, #12]
 289 0026 5B68     		ldr	r3, [r3, #4]
 290 0028 BB60     		str	r3, [r7, #8]
 291 002a 0F4B     		ldr	r3, .L19
 292 002c 7B61     		str	r3, [r7, #20]
 293 002e 02E0     		b	.L17
 294              	.L18:
 295              		.loc 1 266 0 is_stmt 0 discriminator 3
 296 0030 7B69     		ldr	r3, [r7, #20]
ARM GAS  C:\Users\ADMINI~1\AppData\Local\Temp\ccn01HNB.s 			page 11


 297 0032 1B68     		ldr	r3, [r3]
 298 0034 7B61     		str	r3, [r7, #20]
 299              	.L17:
 300              		.loc 1 266 0 discriminator 1
 301 0036 7B69     		ldr	r3, [r7, #20]
 302 0038 1B68     		ldr	r3, [r3]
 303 003a 5A68     		ldr	r2, [r3, #4]
 304 003c BB68     		ldr	r3, [r7, #8]
 305 003e 9A42     		cmp	r2, r3
 306 0040 F6D3     		bcc	.L18
 307              		.loc 1 266 0 discriminator 4
 308 0042 7B69     		ldr	r3, [r7, #20]
 309 0044 1A68     		ldr	r2, [r3]
 310 0046 FB68     		ldr	r3, [r7, #12]
 311 0048 1A60     		str	r2, [r3]
 312 004a 7B69     		ldr	r3, [r7, #20]
 313 004c FA68     		ldr	r2, [r7, #12]
 314 004e 1A60     		str	r2, [r3]
 315              	.LBE4:
 267:.\freertos\portable/heap_2.c **** 			xFreeBytesRemaining += pxLink->xBlockSize;
 316              		.loc 1 267 0 is_stmt 1 discriminator 4
 317 0050 FB68     		ldr	r3, [r7, #12]
 318 0052 5A68     		ldr	r2, [r3, #4]
 319 0054 054B     		ldr	r3, .L19+4
 320 0056 1B68     		ldr	r3, [r3]
 321 0058 D218     		add	r2, r2, r3
 322 005a 044B     		ldr	r3, .L19+4
 323 005c 1A60     		str	r2, [r3]
 268:.\freertos\portable/heap_2.c **** 			traceFREE( pv, pxLink->xBlockSize );
 269:.\freertos\portable/heap_2.c **** 		}
 270:.\freertos\portable/heap_2.c **** 		( void ) xTaskResumeAll();
 324              		.loc 1 270 0 discriminator 4
 325 005e FFF7FEFF 		bl	xTaskResumeAll
 326              	.L15:
 271:.\freertos\portable/heap_2.c **** 	}
 272:.\freertos\portable/heap_2.c **** }
 327              		.loc 1 272 0
 328 0062 BD46     		mov	sp, r7
 329 0064 06B0     		add	sp, sp, #24
 330              		@ sp needed
 331 0066 80BD     		pop	{r7, pc}
 332              	.L20:
 333              		.align	2
 334              	.L19:
 335 0068 00200000 		.word	xStart
 336 006c 00000000 		.word	xFreeBytesRemaining
 337              		.cfi_endproc
 338              	.LFE1:
 339              		.size	vPortFree, .-vPortFree
 340              		.section	.text.xPortGetFreeHeapSize,"ax",%progbits
 341              		.align	2
 342              		.global	xPortGetFreeHeapSize
 343              		.code	16
 344              		.thumb_func
 345              		.type	xPortGetFreeHeapSize, %function
 346              	xPortGetFreeHeapSize:
 347              	.LFB2:
ARM GAS  C:\Users\ADMINI~1\AppData\Local\Temp\ccn01HNB.s 			page 12


 273:.\freertos\portable/heap_2.c **** /*-----------------------------------------------------------*/
 274:.\freertos\portable/heap_2.c **** 
 275:.\freertos\portable/heap_2.c **** size_t xPortGetFreeHeapSize( void )
 276:.\freertos\portable/heap_2.c **** {
 348              		.loc 1 276 0
 349              		.cfi_startproc
 350 0000 80B5     		push	{r7, lr}
 351              		.cfi_def_cfa_offset 8
 352              		.cfi_offset 7, -8
 353              		.cfi_offset 14, -4
 354 0002 00AF     		add	r7, sp, #0
 355              		.cfi_def_cfa_register 7
 277:.\freertos\portable/heap_2.c **** 	return xFreeBytesRemaining;
 356              		.loc 1 277 0
 357 0004 024B     		ldr	r3, .L23
 358 0006 1B68     		ldr	r3, [r3]
 278:.\freertos\portable/heap_2.c **** }
 359              		.loc 1 278 0
 360 0008 181C     		mov	r0, r3
 361 000a BD46     		mov	sp, r7
 362              		@ sp needed
 363 000c 80BD     		pop	{r7, pc}
 364              	.L24:
 365 000e C046     		.align	2
 366              	.L23:
 367 0010 00000000 		.word	xFreeBytesRemaining
 368              		.cfi_endproc
 369              	.LFE2:
 370              		.size	xPortGetFreeHeapSize, .-xPortGetFreeHeapSize
 371              		.section	.text.vPortInitialiseBlocks,"ax",%progbits
 372              		.align	2
 373              		.global	vPortInitialiseBlocks
 374              		.code	16
 375              		.thumb_func
 376              		.type	vPortInitialiseBlocks, %function
 377              	vPortInitialiseBlocks:
 378              	.LFB3:
 279:.\freertos\portable/heap_2.c **** /*-----------------------------------------------------------*/
 280:.\freertos\portable/heap_2.c **** 
 281:.\freertos\portable/heap_2.c **** void vPortInitialiseBlocks( void )
 282:.\freertos\portable/heap_2.c **** {
 379              		.loc 1 282 0
 380              		.cfi_startproc
 381 0000 80B5     		push	{r7, lr}
 382              		.cfi_def_cfa_offset 8
 383              		.cfi_offset 7, -8
 384              		.cfi_offset 14, -4
 385 0002 00AF     		add	r7, sp, #0
 386              		.cfi_def_cfa_register 7
 283:.\freertos\portable/heap_2.c **** 	/* This just exists to keep the linker quiet. */
 284:.\freertos\portable/heap_2.c **** }
 387              		.loc 1 284 0
 388 0004 BD46     		mov	sp, r7
 389              		@ sp needed
 390 0006 80BD     		pop	{r7, pc}
 391              		.cfi_endproc
 392              	.LFE3:
ARM GAS  C:\Users\ADMINI~1\AppData\Local\Temp\ccn01HNB.s 			page 13


 393              		.size	vPortInitialiseBlocks, .-vPortInitialiseBlocks
 394              		.section	.text.prvHeapInit,"ax",%progbits
 395              		.align	2
 396              		.code	16
 397              		.thumb_func
 398              		.type	prvHeapInit, %function
 399              	prvHeapInit:
 400              	.LFB4:
 285:.\freertos\portable/heap_2.c **** /*-----------------------------------------------------------*/
 286:.\freertos\portable/heap_2.c **** 
 287:.\freertos\portable/heap_2.c **** static void prvHeapInit( void )
 288:.\freertos\portable/heap_2.c **** {
 401              		.loc 1 288 0
 402              		.cfi_startproc
 403 0000 80B5     		push	{r7, lr}
 404              		.cfi_def_cfa_offset 8
 405              		.cfi_offset 7, -8
 406              		.cfi_offset 14, -4
 407 0002 82B0     		sub	sp, sp, #8
 408              		.cfi_def_cfa_offset 16
 409 0004 00AF     		add	r7, sp, #0
 410              		.cfi_def_cfa_register 7
 289:.\freertos\portable/heap_2.c **** BlockLink_t *pxFirstFreeBlock;
 290:.\freertos\portable/heap_2.c **** uint8_t *pucAlignedHeap;
 291:.\freertos\portable/heap_2.c **** 
 292:.\freertos\portable/heap_2.c **** 	/* Ensure the heap starts on a correctly aligned boundary. */
 293:.\freertos\portable/heap_2.c **** 	pucAlignedHeap = ( uint8_t * ) ( ( ( portPOINTER_SIZE_TYPE ) &ucHeap[ portBYTE_ALIGNMENT ] ) & ( ~
 411              		.loc 1 293 0
 412 0006 0D4B     		ldr	r3, .L27
 413 0008 0722     		mov	r2, #7
 414 000a 9343     		bic	r3, r2
 415 000c 7B60     		str	r3, [r7, #4]
 294:.\freertos\portable/heap_2.c **** 
 295:.\freertos\portable/heap_2.c **** 	/* xStart is used to hold a pointer to the first item in the list of free
 296:.\freertos\portable/heap_2.c **** 	blocks.  The void cast is used to prevent compiler warnings. */
 297:.\freertos\portable/heap_2.c **** 	xStart.pxNextFreeBlock = ( void * ) pucAlignedHeap;
 416              		.loc 1 297 0
 417 000e 0C4B     		ldr	r3, .L27+4
 418 0010 7A68     		ldr	r2, [r7, #4]
 419 0012 1A60     		str	r2, [r3]
 298:.\freertos\portable/heap_2.c **** 	xStart.xBlockSize = ( size_t ) 0;
 420              		.loc 1 298 0
 421 0014 0A4B     		ldr	r3, .L27+4
 422 0016 0022     		mov	r2, #0
 423 0018 5A60     		str	r2, [r3, #4]
 299:.\freertos\portable/heap_2.c **** 
 300:.\freertos\portable/heap_2.c **** 	/* xEnd is used to mark the end of the list of free blocks. */
 301:.\freertos\portable/heap_2.c **** 	xEnd.xBlockSize = configADJUSTED_HEAP_SIZE;
 424              		.loc 1 301 0
 425 001a 0A4B     		ldr	r3, .L27+8
 426 001c 0A4A     		ldr	r2, .L27+12
 427 001e 5A60     		str	r2, [r3, #4]
 302:.\freertos\portable/heap_2.c **** 	xEnd.pxNextFreeBlock = NULL;
 428              		.loc 1 302 0
 429 0020 084B     		ldr	r3, .L27+8
 430 0022 0022     		mov	r2, #0
 431 0024 1A60     		str	r2, [r3]
ARM GAS  C:\Users\ADMINI~1\AppData\Local\Temp\ccn01HNB.s 			page 14


 303:.\freertos\portable/heap_2.c **** 
 304:.\freertos\portable/heap_2.c **** 	/* To start with there is a single free block that is sized to take up the
 305:.\freertos\portable/heap_2.c **** 	entire heap space. */
 306:.\freertos\portable/heap_2.c **** 	pxFirstFreeBlock = ( void * ) pucAlignedHeap;
 432              		.loc 1 306 0
 433 0026 7B68     		ldr	r3, [r7, #4]
 434 0028 3B60     		str	r3, [r7]
 307:.\freertos\portable/heap_2.c **** 	pxFirstFreeBlock->xBlockSize = configADJUSTED_HEAP_SIZE;
 435              		.loc 1 307 0
 436 002a 3B68     		ldr	r3, [r7]
 437 002c 064A     		ldr	r2, .L27+12
 438 002e 5A60     		str	r2, [r3, #4]
 308:.\freertos\portable/heap_2.c **** 	pxFirstFreeBlock->pxNextFreeBlock = &xEnd;
 439              		.loc 1 308 0
 440 0030 3B68     		ldr	r3, [r7]
 441 0032 044A     		ldr	r2, .L27+8
 442 0034 1A60     		str	r2, [r3]
 309:.\freertos\portable/heap_2.c **** }
 443              		.loc 1 309 0
 444 0036 BD46     		mov	sp, r7
 445 0038 02B0     		add	sp, sp, #8
 446              		@ sp needed
 447 003a 80BD     		pop	{r7, pc}
 448              	.L28:
 449              		.align	2
 450              	.L27:
 451 003c 08000000 		.word	ucHeap+8
 452 0040 00200000 		.word	xStart
 453 0044 08200000 		.word	xEnd
 454 0048 F81F0000 		.word	8184
 455              		.cfi_endproc
 456              	.LFE4:
 457              		.size	prvHeapInit, .-prvHeapInit
 458              		.bss
 459              		.align	2
 460              	xHeapHasBeenInitialised.5027:
 461 2010 00000000 		.space	4
 462              		.text
 463              	.Letext0:
 464              		.file 2 "c:\\program files (x86)\\cypress\\psoc creator\\3.3\\psoc creator\\import\\gnu\\arm\\4.9.
 465              		.file 3 "c:\\program files (x86)\\cypress\\psoc creator\\3.3\\psoc creator\\import\\gnu\\arm\\4.9.
 466              		.file 4 "c:\\program files (x86)\\cypress\\psoc creator\\3.3\\psoc creator\\import\\gnu\\arm\\4.9.
 467              		.file 5 ".\\freertos\\portable/portmacro.h"
