ARM GAS  C:\Users\ADMINI~1\AppData\Local\Temp\ccZRVJvY.s 			page 1


   1              		.cpu cortex-m0
   2              		.fpu softvfp
   3              		.eabi_attribute 20, 1
   4              		.eabi_attribute 21, 1
   5              		.eabi_attribute 23, 3
   6              		.eabi_attribute 24, 1
   7              		.eabi_attribute 25, 1
   8              		.eabi_attribute 26, 1
   9              		.eabi_attribute 30, 6
  10              		.eabi_attribute 34, 0
  11              		.eabi_attribute 18, 4
  12              		.code	16
  13              		.file	"LowPower_LED.c"
  14              		.text
  15              	.Ltext0:
  16              		.cfi_sections	.debug_frame
  17              		.section	.text.LowPower_LED_SetDriveMode,"ax",%progbits
  18              		.align	2
  19              		.global	LowPower_LED_SetDriveMode
  20              		.code	16
  21              		.thumb_func
  22              		.type	LowPower_LED_SetDriveMode, %function
  23              	LowPower_LED_SetDriveMode:
  24              	.LFB0:
  25              		.file 1 ".\\Generated_Source\\PSoC4\\LowPower_LED.c"
   1:.\Generated_Source\PSoC4/LowPower_LED.c **** /*******************************************************************************
   2:.\Generated_Source\PSoC4/LowPower_LED.c **** * File Name: LowPower_LED.c  
   3:.\Generated_Source\PSoC4/LowPower_LED.c **** * Version 2.20
   4:.\Generated_Source\PSoC4/LowPower_LED.c **** *
   5:.\Generated_Source\PSoC4/LowPower_LED.c **** * Description:
   6:.\Generated_Source\PSoC4/LowPower_LED.c **** *  This file contains API to enable firmware control of a Pins component.
   7:.\Generated_Source\PSoC4/LowPower_LED.c **** *
   8:.\Generated_Source\PSoC4/LowPower_LED.c **** ********************************************************************************
   9:.\Generated_Source\PSoC4/LowPower_LED.c **** * Copyright 2008-2015, Cypress Semiconductor Corporation.  All rights reserved.
  10:.\Generated_Source\PSoC4/LowPower_LED.c **** * You may use this file only in accordance with the license, terms, conditions, 
  11:.\Generated_Source\PSoC4/LowPower_LED.c **** * disclaimers, and limitations in the end user license agreement accompanying 
  12:.\Generated_Source\PSoC4/LowPower_LED.c **** * the software package with which this file was provided.
  13:.\Generated_Source\PSoC4/LowPower_LED.c **** *******************************************************************************/
  14:.\Generated_Source\PSoC4/LowPower_LED.c **** 
  15:.\Generated_Source\PSoC4/LowPower_LED.c **** #include "cytypes.h"
  16:.\Generated_Source\PSoC4/LowPower_LED.c **** #include "LowPower_LED.h"
  17:.\Generated_Source\PSoC4/LowPower_LED.c **** 
  18:.\Generated_Source\PSoC4/LowPower_LED.c **** 
  19:.\Generated_Source\PSoC4/LowPower_LED.c **** #if defined(LowPower_LED__PC)
  20:.\Generated_Source\PSoC4/LowPower_LED.c ****     #define LowPower_LED_SetP4PinDriveMode(shift, mode)  \
  21:.\Generated_Source\PSoC4/LowPower_LED.c ****     do { \
  22:.\Generated_Source\PSoC4/LowPower_LED.c ****         LowPower_LED_PC =   (LowPower_LED_PC & \
  23:.\Generated_Source\PSoC4/LowPower_LED.c ****                                 (uint32)(~(uint32)(LowPower_LED_DRIVE_MODE_IND_MASK << \
  24:.\Generated_Source\PSoC4/LowPower_LED.c ****                                 (LowPower_LED_DRIVE_MODE_BITS * (shift))))) | \
  25:.\Generated_Source\PSoC4/LowPower_LED.c ****                                 (uint32)((uint32)(mode) << \
  26:.\Generated_Source\PSoC4/LowPower_LED.c ****                                 (LowPower_LED_DRIVE_MODE_BITS * (shift))); \
  27:.\Generated_Source\PSoC4/LowPower_LED.c ****     } while (0)
  28:.\Generated_Source\PSoC4/LowPower_LED.c **** #else
  29:.\Generated_Source\PSoC4/LowPower_LED.c ****     #if (CY_PSOC4_4200L)
  30:.\Generated_Source\PSoC4/LowPower_LED.c ****         #define LowPower_LED_SetP4PinDriveMode(shift, mode)  \
  31:.\Generated_Source\PSoC4/LowPower_LED.c ****         do { \
  32:.\Generated_Source\PSoC4/LowPower_LED.c ****             LowPower_LED_USBIO_CTRL_REG = (LowPower_LED_USBIO_CTRL_REG & \
ARM GAS  C:\Users\ADMINI~1\AppData\Local\Temp\ccZRVJvY.s 			page 2


  33:.\Generated_Source\PSoC4/LowPower_LED.c ****                                     (uint32)(~(uint32)(LowPower_LED_DRIVE_MODE_IND_MASK << \
  34:.\Generated_Source\PSoC4/LowPower_LED.c ****                                     (LowPower_LED_DRIVE_MODE_BITS * (shift))))) | \
  35:.\Generated_Source\PSoC4/LowPower_LED.c ****                                     (uint32)((uint32)(mode) << \
  36:.\Generated_Source\PSoC4/LowPower_LED.c ****                                     (LowPower_LED_DRIVE_MODE_BITS * (shift))); \
  37:.\Generated_Source\PSoC4/LowPower_LED.c ****         } while (0)
  38:.\Generated_Source\PSoC4/LowPower_LED.c ****     #endif
  39:.\Generated_Source\PSoC4/LowPower_LED.c **** #endif
  40:.\Generated_Source\PSoC4/LowPower_LED.c ****   
  41:.\Generated_Source\PSoC4/LowPower_LED.c **** 
  42:.\Generated_Source\PSoC4/LowPower_LED.c **** #if defined(LowPower_LED__PC) || (CY_PSOC4_4200L) 
  43:.\Generated_Source\PSoC4/LowPower_LED.c ****     /*******************************************************************************
  44:.\Generated_Source\PSoC4/LowPower_LED.c ****     * Function Name: LowPower_LED_SetDriveMode
  45:.\Generated_Source\PSoC4/LowPower_LED.c ****     ****************************************************************************//**
  46:.\Generated_Source\PSoC4/LowPower_LED.c ****     *
  47:.\Generated_Source\PSoC4/LowPower_LED.c ****     * \brief Sets the drive mode for each of the Pins component's pins.
  48:.\Generated_Source\PSoC4/LowPower_LED.c ****     * 
  49:.\Generated_Source\PSoC4/LowPower_LED.c ****     * <b>Note</b> This affects all pins in the Pins component instance. Use the
  50:.\Generated_Source\PSoC4/LowPower_LED.c ****     * Per-Pin APIs if you wish to control individual pin's drive modes.
  51:.\Generated_Source\PSoC4/LowPower_LED.c ****     *
  52:.\Generated_Source\PSoC4/LowPower_LED.c ****     * <b>Note</b> USBIOs have limited drive functionality. Refer to the Drive Mode
  53:.\Generated_Source\PSoC4/LowPower_LED.c ****     * parameter for more information.
  54:.\Generated_Source\PSoC4/LowPower_LED.c ****     *
  55:.\Generated_Source\PSoC4/LowPower_LED.c ****     * \param mode
  56:.\Generated_Source\PSoC4/LowPower_LED.c ****     *  Mode for the selected signals. Valid options are documented in 
  57:.\Generated_Source\PSoC4/LowPower_LED.c ****     *  \ref driveMode.
  58:.\Generated_Source\PSoC4/LowPower_LED.c ****     *
  59:.\Generated_Source\PSoC4/LowPower_LED.c ****     * \return
  60:.\Generated_Source\PSoC4/LowPower_LED.c ****     *  None
  61:.\Generated_Source\PSoC4/LowPower_LED.c ****     *
  62:.\Generated_Source\PSoC4/LowPower_LED.c ****     * \sideeffect
  63:.\Generated_Source\PSoC4/LowPower_LED.c ****     *  If you use read-modify-write operations that are not atomic, the ISR can
  64:.\Generated_Source\PSoC4/LowPower_LED.c ****     *  cause corruption of this function. An ISR that interrupts this function 
  65:.\Generated_Source\PSoC4/LowPower_LED.c ****     *  and performs writes to the Pins component Drive Mode registers can cause 
  66:.\Generated_Source\PSoC4/LowPower_LED.c ****     *  corrupted port data. To avoid this issue, you should either use the Per-Pin
  67:.\Generated_Source\PSoC4/LowPower_LED.c ****     *  APIs (primary method) or disable interrupts around this function.
  68:.\Generated_Source\PSoC4/LowPower_LED.c ****     *
  69:.\Generated_Source\PSoC4/LowPower_LED.c ****     * \funcusage
  70:.\Generated_Source\PSoC4/LowPower_LED.c ****     *  \snippet LowPower_LED_SUT.c usage_LowPower_LED_SetDriveMode
  71:.\Generated_Source\PSoC4/LowPower_LED.c ****     *******************************************************************************/
  72:.\Generated_Source\PSoC4/LowPower_LED.c ****     void LowPower_LED_SetDriveMode(uint8 mode)
  73:.\Generated_Source\PSoC4/LowPower_LED.c ****     {
  26              		.loc 1 73 0
  27              		.cfi_startproc
  28 0000 80B5     		push	{r7, lr}
  29              		.cfi_def_cfa_offset 8
  30              		.cfi_offset 7, -8
  31              		.cfi_offset 14, -4
  32 0002 82B0     		sub	sp, sp, #8
  33              		.cfi_def_cfa_offset 16
  34 0004 00AF     		add	r7, sp, #0
  35              		.cfi_def_cfa_register 7
  36 0006 021C     		mov	r2, r0
  37 0008 FB1D     		add	r3, r7, #7
  38 000a 1A70     		strb	r2, [r3]
  74:.\Generated_Source\PSoC4/LowPower_LED.c **** 		LowPower_LED_SetP4PinDriveMode(LowPower_LED__0__SHIFT, mode);
  39              		.loc 1 74 0
  40 000c 064B     		ldr	r3, .L2
ARM GAS  C:\Users\ADMINI~1\AppData\Local\Temp\ccZRVJvY.s 			page 3


  41 000e 064A     		ldr	r2, .L2
  42 0010 1268     		ldr	r2, [r2]
  43 0012 0649     		ldr	r1, .L2+4
  44 0014 1140     		and	r1, r2
  45 0016 FA1D     		add	r2, r7, #7
  46 0018 1278     		ldrb	r2, [r2]
  47 001a 5205     		lsl	r2, r2, #21
  48 001c 0A43     		orr	r2, r1
  49 001e 1A60     		str	r2, [r3]
  75:.\Generated_Source\PSoC4/LowPower_LED.c ****     }
  50              		.loc 1 75 0
  51 0020 BD46     		mov	sp, r7
  52 0022 02B0     		add	sp, sp, #8
  53              		@ sp needed
  54 0024 80BD     		pop	{r7, pc}
  55              	.L3:
  56 0026 C046     		.align	2
  57              	.L2:
  58 0028 08030440 		.word	1074004744
  59 002c FFFF1FFF 		.word	-14680065
  60              		.cfi_endproc
  61              	.LFE0:
  62              		.size	LowPower_LED_SetDriveMode, .-LowPower_LED_SetDriveMode
  63              		.section	.text.LowPower_LED_Write,"ax",%progbits
  64              		.align	2
  65              		.global	LowPower_LED_Write
  66              		.code	16
  67              		.thumb_func
  68              		.type	LowPower_LED_Write, %function
  69              	LowPower_LED_Write:
  70              	.LFB1:
  76:.\Generated_Source\PSoC4/LowPower_LED.c **** #endif
  77:.\Generated_Source\PSoC4/LowPower_LED.c **** 
  78:.\Generated_Source\PSoC4/LowPower_LED.c **** 
  79:.\Generated_Source\PSoC4/LowPower_LED.c **** /*******************************************************************************
  80:.\Generated_Source\PSoC4/LowPower_LED.c **** * Function Name: LowPower_LED_Write
  81:.\Generated_Source\PSoC4/LowPower_LED.c **** ****************************************************************************//**
  82:.\Generated_Source\PSoC4/LowPower_LED.c **** *
  83:.\Generated_Source\PSoC4/LowPower_LED.c **** * \brief Writes the value to the physical port (data output register), masking
  84:.\Generated_Source\PSoC4/LowPower_LED.c **** *  and shifting the bits appropriately. 
  85:.\Generated_Source\PSoC4/LowPower_LED.c **** *
  86:.\Generated_Source\PSoC4/LowPower_LED.c **** * The data output register controls the signal applied to the physical pin in 
  87:.\Generated_Source\PSoC4/LowPower_LED.c **** * conjunction with the drive mode parameter. This function avoids changing 
  88:.\Generated_Source\PSoC4/LowPower_LED.c **** * other bits in the port by using the appropriate method (read-modify-write or
  89:.\Generated_Source\PSoC4/LowPower_LED.c **** * bit banding).
  90:.\Generated_Source\PSoC4/LowPower_LED.c **** *
  91:.\Generated_Source\PSoC4/LowPower_LED.c **** * <b>Note</b> This function should not be used on a hardware digital output pin 
  92:.\Generated_Source\PSoC4/LowPower_LED.c **** * as it is driven by the hardware signal attached to it.
  93:.\Generated_Source\PSoC4/LowPower_LED.c **** *
  94:.\Generated_Source\PSoC4/LowPower_LED.c **** * \param value
  95:.\Generated_Source\PSoC4/LowPower_LED.c **** *  Value to write to the component instance.
  96:.\Generated_Source\PSoC4/LowPower_LED.c **** *
  97:.\Generated_Source\PSoC4/LowPower_LED.c **** * \return 
  98:.\Generated_Source\PSoC4/LowPower_LED.c **** *  None 
  99:.\Generated_Source\PSoC4/LowPower_LED.c **** *
 100:.\Generated_Source\PSoC4/LowPower_LED.c **** * \sideeffect
 101:.\Generated_Source\PSoC4/LowPower_LED.c **** *  If you use read-modify-write operations that are not atomic; the Interrupt 
ARM GAS  C:\Users\ADMINI~1\AppData\Local\Temp\ccZRVJvY.s 			page 4


 102:.\Generated_Source\PSoC4/LowPower_LED.c **** *  Service Routines (ISR) can cause corruption of this function. An ISR that 
 103:.\Generated_Source\PSoC4/LowPower_LED.c **** *  interrupts this function and performs writes to the Pins component data 
 104:.\Generated_Source\PSoC4/LowPower_LED.c **** *  register can cause corrupted port data. To avoid this issue, you should 
 105:.\Generated_Source\PSoC4/LowPower_LED.c **** *  either use the Per-Pin APIs (primary method) or disable interrupts around 
 106:.\Generated_Source\PSoC4/LowPower_LED.c **** *  this function.
 107:.\Generated_Source\PSoC4/LowPower_LED.c **** *
 108:.\Generated_Source\PSoC4/LowPower_LED.c **** * \funcusage
 109:.\Generated_Source\PSoC4/LowPower_LED.c **** *  \snippet LowPower_LED_SUT.c usage_LowPower_LED_Write
 110:.\Generated_Source\PSoC4/LowPower_LED.c **** *******************************************************************************/
 111:.\Generated_Source\PSoC4/LowPower_LED.c **** void LowPower_LED_Write(uint8 value)
 112:.\Generated_Source\PSoC4/LowPower_LED.c **** {
  71              		.loc 1 112 0
  72              		.cfi_startproc
  73 0000 80B5     		push	{r7, lr}
  74              		.cfi_def_cfa_offset 8
  75              		.cfi_offset 7, -8
  76              		.cfi_offset 14, -4
  77 0002 84B0     		sub	sp, sp, #16
  78              		.cfi_def_cfa_offset 24
  79 0004 00AF     		add	r7, sp, #0
  80              		.cfi_def_cfa_register 7
  81 0006 021C     		mov	r2, r0
  82 0008 FB1D     		add	r3, r7, #7
  83 000a 1A70     		strb	r2, [r3]
 113:.\Generated_Source\PSoC4/LowPower_LED.c ****     uint8 drVal = (uint8)(LowPower_LED_DR & (uint8)(~LowPower_LED_MASK));
  84              		.loc 1 113 0
  85 000c 0D4B     		ldr	r3, .L5
  86 000e 1B68     		ldr	r3, [r3]
  87 0010 DAB2     		uxtb	r2, r3
  88 0012 0F23     		mov	r3, #15
  89 0014 FB18     		add	r3, r7, r3
  90 0016 7F21     		mov	r1, #127
  91 0018 0A40     		and	r2, r1
  92 001a 1A70     		strb	r2, [r3]
 114:.\Generated_Source\PSoC4/LowPower_LED.c ****     drVal = (drVal | ((uint8)(value << LowPower_LED_SHIFT) & LowPower_LED_MASK));
  93              		.loc 1 114 0
  94 001c FB1D     		add	r3, r7, #7
  95 001e 1B78     		ldrb	r3, [r3]
  96 0020 DB01     		lsl	r3, r3, #7
  97 0022 D9B2     		uxtb	r1, r3
  98 0024 0F23     		mov	r3, #15
  99 0026 FB18     		add	r3, r7, r3
 100 0028 0F22     		mov	r2, #15
 101 002a BA18     		add	r2, r7, r2
 102 002c 1278     		ldrb	r2, [r2]
 103 002e 0A43     		orr	r2, r1
 104 0030 1A70     		strb	r2, [r3]
 115:.\Generated_Source\PSoC4/LowPower_LED.c ****     LowPower_LED_DR = (uint32)drVal;
 105              		.loc 1 115 0
 106 0032 044B     		ldr	r3, .L5
 107 0034 0F22     		mov	r2, #15
 108 0036 BA18     		add	r2, r7, r2
 109 0038 1278     		ldrb	r2, [r2]
 110 003a 1A60     		str	r2, [r3]
 116:.\Generated_Source\PSoC4/LowPower_LED.c **** }
 111              		.loc 1 116 0
 112 003c BD46     		mov	sp, r7
ARM GAS  C:\Users\ADMINI~1\AppData\Local\Temp\ccZRVJvY.s 			page 5


 113 003e 04B0     		add	sp, sp, #16
 114              		@ sp needed
 115 0040 80BD     		pop	{r7, pc}
 116              	.L6:
 117 0042 C046     		.align	2
 118              	.L5:
 119 0044 00030440 		.word	1074004736
 120              		.cfi_endproc
 121              	.LFE1:
 122              		.size	LowPower_LED_Write, .-LowPower_LED_Write
 123              		.section	.text.LowPower_LED_Read,"ax",%progbits
 124              		.align	2
 125              		.global	LowPower_LED_Read
 126              		.code	16
 127              		.thumb_func
 128              		.type	LowPower_LED_Read, %function
 129              	LowPower_LED_Read:
 130              	.LFB2:
 117:.\Generated_Source\PSoC4/LowPower_LED.c **** 
 118:.\Generated_Source\PSoC4/LowPower_LED.c **** 
 119:.\Generated_Source\PSoC4/LowPower_LED.c **** /*******************************************************************************
 120:.\Generated_Source\PSoC4/LowPower_LED.c **** * Function Name: LowPower_LED_Read
 121:.\Generated_Source\PSoC4/LowPower_LED.c **** ****************************************************************************//**
 122:.\Generated_Source\PSoC4/LowPower_LED.c **** *
 123:.\Generated_Source\PSoC4/LowPower_LED.c **** * \brief Reads the associated physical port (pin status register) and masks 
 124:.\Generated_Source\PSoC4/LowPower_LED.c **** *  the required bits according to the width and bit position of the component
 125:.\Generated_Source\PSoC4/LowPower_LED.c **** *  instance. 
 126:.\Generated_Source\PSoC4/LowPower_LED.c **** *
 127:.\Generated_Source\PSoC4/LowPower_LED.c **** * The pin's status register returns the current logic level present on the 
 128:.\Generated_Source\PSoC4/LowPower_LED.c **** * physical pin.
 129:.\Generated_Source\PSoC4/LowPower_LED.c **** *
 130:.\Generated_Source\PSoC4/LowPower_LED.c **** * \return 
 131:.\Generated_Source\PSoC4/LowPower_LED.c **** *  The current value for the pins in the component as a right justified number.
 132:.\Generated_Source\PSoC4/LowPower_LED.c **** *
 133:.\Generated_Source\PSoC4/LowPower_LED.c **** * \funcusage
 134:.\Generated_Source\PSoC4/LowPower_LED.c **** *  \snippet LowPower_LED_SUT.c usage_LowPower_LED_Read  
 135:.\Generated_Source\PSoC4/LowPower_LED.c **** *******************************************************************************/
 136:.\Generated_Source\PSoC4/LowPower_LED.c **** uint8 LowPower_LED_Read(void)
 137:.\Generated_Source\PSoC4/LowPower_LED.c **** {
 131              		.loc 1 137 0
 132              		.cfi_startproc
 133 0000 80B5     		push	{r7, lr}
 134              		.cfi_def_cfa_offset 8
 135              		.cfi_offset 7, -8
 136              		.cfi_offset 14, -4
 137 0002 00AF     		add	r7, sp, #0
 138              		.cfi_def_cfa_register 7
 138:.\Generated_Source\PSoC4/LowPower_LED.c ****     return (uint8)((LowPower_LED_PS & LowPower_LED_MASK) >> LowPower_LED_SHIFT);
 139              		.loc 1 138 0
 140 0004 044B     		ldr	r3, .L9
 141 0006 1B68     		ldr	r3, [r3]
 142 0008 8022     		mov	r2, #128
 143 000a 1340     		and	r3, r2
 144 000c DB09     		lsr	r3, r3, #7
 145 000e DBB2     		uxtb	r3, r3
 139:.\Generated_Source\PSoC4/LowPower_LED.c **** }
 146              		.loc 1 139 0
ARM GAS  C:\Users\ADMINI~1\AppData\Local\Temp\ccZRVJvY.s 			page 6


 147 0010 181C     		mov	r0, r3
 148 0012 BD46     		mov	sp, r7
 149              		@ sp needed
 150 0014 80BD     		pop	{r7, pc}
 151              	.L10:
 152 0016 C046     		.align	2
 153              	.L9:
 154 0018 04030440 		.word	1074004740
 155              		.cfi_endproc
 156              	.LFE2:
 157              		.size	LowPower_LED_Read, .-LowPower_LED_Read
 158              		.section	.text.LowPower_LED_ReadDataReg,"ax",%progbits
 159              		.align	2
 160              		.global	LowPower_LED_ReadDataReg
 161              		.code	16
 162              		.thumb_func
 163              		.type	LowPower_LED_ReadDataReg, %function
 164              	LowPower_LED_ReadDataReg:
 165              	.LFB3:
 140:.\Generated_Source\PSoC4/LowPower_LED.c **** 
 141:.\Generated_Source\PSoC4/LowPower_LED.c **** 
 142:.\Generated_Source\PSoC4/LowPower_LED.c **** /*******************************************************************************
 143:.\Generated_Source\PSoC4/LowPower_LED.c **** * Function Name: LowPower_LED_ReadDataReg
 144:.\Generated_Source\PSoC4/LowPower_LED.c **** ****************************************************************************//**
 145:.\Generated_Source\PSoC4/LowPower_LED.c **** *
 146:.\Generated_Source\PSoC4/LowPower_LED.c **** * \brief Reads the associated physical port's data output register and masks 
 147:.\Generated_Source\PSoC4/LowPower_LED.c **** *  the correct bits according to the width and bit position of the component 
 148:.\Generated_Source\PSoC4/LowPower_LED.c **** *  instance. 
 149:.\Generated_Source\PSoC4/LowPower_LED.c **** *
 150:.\Generated_Source\PSoC4/LowPower_LED.c **** * The data output register controls the signal applied to the physical pin in 
 151:.\Generated_Source\PSoC4/LowPower_LED.c **** * conjunction with the drive mode parameter. This is not the same as the 
 152:.\Generated_Source\PSoC4/LowPower_LED.c **** * preferred LowPower_LED_Read() API because the 
 153:.\Generated_Source\PSoC4/LowPower_LED.c **** * LowPower_LED_ReadDataReg() reads the data register instead of the status 
 154:.\Generated_Source\PSoC4/LowPower_LED.c **** * register. For output pins this is a useful function to determine the value 
 155:.\Generated_Source\PSoC4/LowPower_LED.c **** * just written to the pin.
 156:.\Generated_Source\PSoC4/LowPower_LED.c **** *
 157:.\Generated_Source\PSoC4/LowPower_LED.c **** * \return 
 158:.\Generated_Source\PSoC4/LowPower_LED.c **** *  The current value of the data register masked and shifted into a right 
 159:.\Generated_Source\PSoC4/LowPower_LED.c **** *  justified number for the component instance.
 160:.\Generated_Source\PSoC4/LowPower_LED.c **** *
 161:.\Generated_Source\PSoC4/LowPower_LED.c **** * \funcusage
 162:.\Generated_Source\PSoC4/LowPower_LED.c **** *  \snippet LowPower_LED_SUT.c usage_LowPower_LED_ReadDataReg 
 163:.\Generated_Source\PSoC4/LowPower_LED.c **** *******************************************************************************/
 164:.\Generated_Source\PSoC4/LowPower_LED.c **** uint8 LowPower_LED_ReadDataReg(void)
 165:.\Generated_Source\PSoC4/LowPower_LED.c **** {
 166              		.loc 1 165 0
 167              		.cfi_startproc
 168 0000 80B5     		push	{r7, lr}
 169              		.cfi_def_cfa_offset 8
 170              		.cfi_offset 7, -8
 171              		.cfi_offset 14, -4
 172 0002 00AF     		add	r7, sp, #0
 173              		.cfi_def_cfa_register 7
 166:.\Generated_Source\PSoC4/LowPower_LED.c ****     return (uint8)((LowPower_LED_DR & LowPower_LED_MASK) >> LowPower_LED_SHIFT);
 174              		.loc 1 166 0
 175 0004 044B     		ldr	r3, .L13
 176 0006 1B68     		ldr	r3, [r3]
ARM GAS  C:\Users\ADMINI~1\AppData\Local\Temp\ccZRVJvY.s 			page 7


 177 0008 8022     		mov	r2, #128
 178 000a 1340     		and	r3, r2
 179 000c DB09     		lsr	r3, r3, #7
 180 000e DBB2     		uxtb	r3, r3
 167:.\Generated_Source\PSoC4/LowPower_LED.c **** }
 181              		.loc 1 167 0
 182 0010 181C     		mov	r0, r3
 183 0012 BD46     		mov	sp, r7
 184              		@ sp needed
 185 0014 80BD     		pop	{r7, pc}
 186              	.L14:
 187 0016 C046     		.align	2
 188              	.L13:
 189 0018 00030440 		.word	1074004736
 190              		.cfi_endproc
 191              	.LFE3:
 192              		.size	LowPower_LED_ReadDataReg, .-LowPower_LED_ReadDataReg
 193              		.section	.text.LowPower_LED_SetInterruptMode,"ax",%progbits
 194              		.align	2
 195              		.global	LowPower_LED_SetInterruptMode
 196              		.code	16
 197              		.thumb_func
 198              		.type	LowPower_LED_SetInterruptMode, %function
 199              	LowPower_LED_SetInterruptMode:
 200              	.LFB4:
 168:.\Generated_Source\PSoC4/LowPower_LED.c **** 
 169:.\Generated_Source\PSoC4/LowPower_LED.c **** 
 170:.\Generated_Source\PSoC4/LowPower_LED.c **** /*******************************************************************************
 171:.\Generated_Source\PSoC4/LowPower_LED.c **** * Function Name: LowPower_LED_SetInterruptMode
 172:.\Generated_Source\PSoC4/LowPower_LED.c **** ****************************************************************************//**
 173:.\Generated_Source\PSoC4/LowPower_LED.c **** *
 174:.\Generated_Source\PSoC4/LowPower_LED.c **** * \brief Configures the interrupt mode for each of the Pins component's
 175:.\Generated_Source\PSoC4/LowPower_LED.c **** *  pins. Alternatively you may set the interrupt mode for all the pins
 176:.\Generated_Source\PSoC4/LowPower_LED.c **** *  specified in the Pins component.
 177:.\Generated_Source\PSoC4/LowPower_LED.c **** *
 178:.\Generated_Source\PSoC4/LowPower_LED.c **** *  <b>Note</b> The interrupt is port-wide and therefore any enabled pin
 179:.\Generated_Source\PSoC4/LowPower_LED.c **** *  interrupt may trigger it.
 180:.\Generated_Source\PSoC4/LowPower_LED.c **** *
 181:.\Generated_Source\PSoC4/LowPower_LED.c **** * \param position
 182:.\Generated_Source\PSoC4/LowPower_LED.c **** *  The pin position as listed in the Pins component. You may OR these to be 
 183:.\Generated_Source\PSoC4/LowPower_LED.c **** *  able to configure the interrupt mode of multiple pins within a Pins 
 184:.\Generated_Source\PSoC4/LowPower_LED.c **** *  component. Or you may use LowPower_LED_INTR_ALL to configure the
 185:.\Generated_Source\PSoC4/LowPower_LED.c **** *  interrupt mode of all the pins in the Pins component.       
 186:.\Generated_Source\PSoC4/LowPower_LED.c **** *  - LowPower_LED_0_INTR       (First pin in the list)
 187:.\Generated_Source\PSoC4/LowPower_LED.c **** *  - LowPower_LED_1_INTR       (Second pin in the list)
 188:.\Generated_Source\PSoC4/LowPower_LED.c **** *  - ...
 189:.\Generated_Source\PSoC4/LowPower_LED.c **** *  - LowPower_LED_INTR_ALL     (All pins in Pins component)
 190:.\Generated_Source\PSoC4/LowPower_LED.c **** *
 191:.\Generated_Source\PSoC4/LowPower_LED.c **** * \param mode
 192:.\Generated_Source\PSoC4/LowPower_LED.c **** *  Interrupt mode for the selected pins. Valid options are documented in
 193:.\Generated_Source\PSoC4/LowPower_LED.c **** *  \ref intrMode.
 194:.\Generated_Source\PSoC4/LowPower_LED.c **** *
 195:.\Generated_Source\PSoC4/LowPower_LED.c **** * \return 
 196:.\Generated_Source\PSoC4/LowPower_LED.c **** *  None
 197:.\Generated_Source\PSoC4/LowPower_LED.c **** *  
 198:.\Generated_Source\PSoC4/LowPower_LED.c **** * \sideeffect
 199:.\Generated_Source\PSoC4/LowPower_LED.c **** *  It is recommended that the interrupt be disabled before calling this 
ARM GAS  C:\Users\ADMINI~1\AppData\Local\Temp\ccZRVJvY.s 			page 8


 200:.\Generated_Source\PSoC4/LowPower_LED.c **** *  function to avoid unintended interrupt requests. Note that the interrupt
 201:.\Generated_Source\PSoC4/LowPower_LED.c **** *  type is port wide, and therefore will trigger for any enabled pin on the 
 202:.\Generated_Source\PSoC4/LowPower_LED.c **** *  port.
 203:.\Generated_Source\PSoC4/LowPower_LED.c **** *
 204:.\Generated_Source\PSoC4/LowPower_LED.c **** * \funcusage
 205:.\Generated_Source\PSoC4/LowPower_LED.c **** *  \snippet LowPower_LED_SUT.c usage_LowPower_LED_SetInterruptMode
 206:.\Generated_Source\PSoC4/LowPower_LED.c **** *******************************************************************************/
 207:.\Generated_Source\PSoC4/LowPower_LED.c **** void LowPower_LED_SetInterruptMode(uint16 position, uint16 mode)
 208:.\Generated_Source\PSoC4/LowPower_LED.c **** {
 201              		.loc 1 208 0
 202              		.cfi_startproc
 203 0000 80B5     		push	{r7, lr}
 204              		.cfi_def_cfa_offset 8
 205              		.cfi_offset 7, -8
 206              		.cfi_offset 14, -4
 207 0002 84B0     		sub	sp, sp, #16
 208              		.cfi_def_cfa_offset 24
 209 0004 00AF     		add	r7, sp, #0
 210              		.cfi_def_cfa_register 7
 211 0006 021C     		mov	r2, r0
 212 0008 BB1D     		add	r3, r7, #6
 213 000a 1A80     		strh	r2, [r3]
 214 000c 3B1D     		add	r3, r7, #4
 215 000e 0A1C     		add	r2, r1, #0
 216 0010 1A80     		strh	r2, [r3]
 209:.\Generated_Source\PSoC4/LowPower_LED.c ****     uint32 intrCfg;
 210:.\Generated_Source\PSoC4/LowPower_LED.c ****     
 211:.\Generated_Source\PSoC4/LowPower_LED.c ****     intrCfg =  LowPower_LED_INTCFG & (uint32)(~(uint32)position);
 217              		.loc 1 211 0
 218 0012 0A4B     		ldr	r3, .L16
 219 0014 1B68     		ldr	r3, [r3]
 220 0016 BA1D     		add	r2, r7, #6
 221 0018 1288     		ldrh	r2, [r2]
 222 001a D243     		mvn	r2, r2
 223 001c 1340     		and	r3, r2
 224 001e FB60     		str	r3, [r7, #12]
 212:.\Generated_Source\PSoC4/LowPower_LED.c ****     LowPower_LED_INTCFG = intrCfg | ((uint32)position & (uint32)mode);
 225              		.loc 1 212 0
 226 0020 064B     		ldr	r3, .L16
 227 0022 BA1D     		add	r2, r7, #6
 228 0024 391D     		add	r1, r7, #4
 229 0026 1288     		ldrh	r2, [r2]
 230 0028 0988     		ldrh	r1, [r1]
 231 002a 0A40     		and	r2, r1
 232 002c 92B2     		uxth	r2, r2
 233 002e 111C     		mov	r1, r2
 234 0030 FA68     		ldr	r2, [r7, #12]
 235 0032 0A43     		orr	r2, r1
 236 0034 1A60     		str	r2, [r3]
 213:.\Generated_Source\PSoC4/LowPower_LED.c **** }
 237              		.loc 1 213 0
 238 0036 BD46     		mov	sp, r7
 239 0038 04B0     		add	sp, sp, #16
 240              		@ sp needed
 241 003a 80BD     		pop	{r7, pc}
 242              	.L17:
 243              		.align	2
ARM GAS  C:\Users\ADMINI~1\AppData\Local\Temp\ccZRVJvY.s 			page 9


 244              	.L16:
 245 003c 0C030440 		.word	1074004748
 246              		.cfi_endproc
 247              	.LFE4:
 248              		.size	LowPower_LED_SetInterruptMode, .-LowPower_LED_SetInterruptMode
 249              		.section	.text.LowPower_LED_ClearInterrupt,"ax",%progbits
 250              		.align	2
 251              		.global	LowPower_LED_ClearInterrupt
 252              		.code	16
 253              		.thumb_func
 254              		.type	LowPower_LED_ClearInterrupt, %function
 255              	LowPower_LED_ClearInterrupt:
 256              	.LFB5:
 214:.\Generated_Source\PSoC4/LowPower_LED.c **** 
 215:.\Generated_Source\PSoC4/LowPower_LED.c **** 
 216:.\Generated_Source\PSoC4/LowPower_LED.c **** /*******************************************************************************
 217:.\Generated_Source\PSoC4/LowPower_LED.c **** * Function Name: LowPower_LED_ClearInterrupt
 218:.\Generated_Source\PSoC4/LowPower_LED.c **** ****************************************************************************//**
 219:.\Generated_Source\PSoC4/LowPower_LED.c **** *
 220:.\Generated_Source\PSoC4/LowPower_LED.c **** * \brief Clears any active interrupts attached with the component and returns 
 221:.\Generated_Source\PSoC4/LowPower_LED.c **** *  the value of the interrupt status register allowing determination of which
 222:.\Generated_Source\PSoC4/LowPower_LED.c **** *  pins generated an interrupt event.
 223:.\Generated_Source\PSoC4/LowPower_LED.c **** *
 224:.\Generated_Source\PSoC4/LowPower_LED.c **** * \return 
 225:.\Generated_Source\PSoC4/LowPower_LED.c **** *  The right-shifted current value of the interrupt status register. Each pin 
 226:.\Generated_Source\PSoC4/LowPower_LED.c **** *  has one bit set if it generated an interrupt event. For example, bit 0 is 
 227:.\Generated_Source\PSoC4/LowPower_LED.c **** *  for pin 0 and bit 1 is for pin 1 of the Pins component.
 228:.\Generated_Source\PSoC4/LowPower_LED.c **** *  
 229:.\Generated_Source\PSoC4/LowPower_LED.c **** * \sideeffect
 230:.\Generated_Source\PSoC4/LowPower_LED.c **** *  Clears all bits of the physical port's interrupt status register, not just
 231:.\Generated_Source\PSoC4/LowPower_LED.c **** *  those associated with the Pins component.
 232:.\Generated_Source\PSoC4/LowPower_LED.c **** *
 233:.\Generated_Source\PSoC4/LowPower_LED.c **** * \funcusage
 234:.\Generated_Source\PSoC4/LowPower_LED.c **** *  \snippet LowPower_LED_SUT.c usage_LowPower_LED_ClearInterrupt
 235:.\Generated_Source\PSoC4/LowPower_LED.c **** *******************************************************************************/
 236:.\Generated_Source\PSoC4/LowPower_LED.c **** uint8 LowPower_LED_ClearInterrupt(void)
 237:.\Generated_Source\PSoC4/LowPower_LED.c **** {
 257              		.loc 1 237 0
 258              		.cfi_startproc
 259 0000 80B5     		push	{r7, lr}
 260              		.cfi_def_cfa_offset 8
 261              		.cfi_offset 7, -8
 262              		.cfi_offset 14, -4
 263 0002 82B0     		sub	sp, sp, #8
 264              		.cfi_def_cfa_offset 16
 265 0004 00AF     		add	r7, sp, #0
 266              		.cfi_def_cfa_register 7
 238:.\Generated_Source\PSoC4/LowPower_LED.c **** 	uint8 maskedStatus = (uint8)(LowPower_LED_INTSTAT & LowPower_LED_MASK);
 267              		.loc 1 238 0
 268 0006 094B     		ldr	r3, .L20
 269 0008 1B68     		ldr	r3, [r3]
 270 000a DAB2     		uxtb	r2, r3
 271 000c FB1D     		add	r3, r7, #7
 272 000e 7F21     		mov	r1, #127
 273 0010 8A43     		bic	r2, r1
 274 0012 1A70     		strb	r2, [r3]
 239:.\Generated_Source\PSoC4/LowPower_LED.c **** 	LowPower_LED_INTSTAT = maskedStatus;
ARM GAS  C:\Users\ADMINI~1\AppData\Local\Temp\ccZRVJvY.s 			page 10


 275              		.loc 1 239 0
 276 0014 054B     		ldr	r3, .L20
 277 0016 FA1D     		add	r2, r7, #7
 278 0018 1278     		ldrb	r2, [r2]
 279 001a 1A60     		str	r2, [r3]
 240:.\Generated_Source\PSoC4/LowPower_LED.c ****     return maskedStatus >> LowPower_LED_SHIFT;
 280              		.loc 1 240 0
 281 001c FB1D     		add	r3, r7, #7
 282 001e 1B78     		ldrb	r3, [r3]
 283 0020 DB09     		lsr	r3, r3, #7
 284 0022 DBB2     		uxtb	r3, r3
 241:.\Generated_Source\PSoC4/LowPower_LED.c **** }
 285              		.loc 1 241 0
 286 0024 181C     		mov	r0, r3
 287 0026 BD46     		mov	sp, r7
 288 0028 02B0     		add	sp, sp, #8
 289              		@ sp needed
 290 002a 80BD     		pop	{r7, pc}
 291              	.L21:
 292              		.align	2
 293              	.L20:
 294 002c 10030440 		.word	1074004752
 295              		.cfi_endproc
 296              	.LFE5:
 297              		.size	LowPower_LED_ClearInterrupt, .-LowPower_LED_ClearInterrupt
 298              		.text
 299              	.Letext0:
 300              		.file 2 ".\\Generated_Source\\PSoC4\\cytypes.h"
