ARM GAS  C:\Users\ADMINI~1\AppData\Local\Temp\ccN8uX6B.s 			page 1


   1              		.cpu cortex-m0
   2              		.fpu softvfp
   3              		.eabi_attribute 20, 1
   4              		.eabi_attribute 21, 1
   5              		.eabi_attribute 23, 3
   6              		.eabi_attribute 24, 1
   7              		.eabi_attribute 25, 1
   8              		.eabi_attribute 26, 1
   9              		.eabi_attribute 30, 1
  10              		.eabi_attribute 34, 0
  11              		.eabi_attribute 18, 4
  12              		.code	16
  13              		.file	"Pin_LED_1.c"
  14              		.text
  15              	.Ltext0:
  16              		.cfi_sections	.debug_frame
  17              		.section	.text.Pin_LED_1_Write,"ax",%progbits
  18              		.align	2
  19              		.global	Pin_LED_1_Write
  20              		.code	16
  21              		.thumb_func
  22              		.type	Pin_LED_1_Write, %function
  23              	Pin_LED_1_Write:
  24              	.LFB0:
  25              		.file 1 ".\\Generated_Source\\PSoC4\\Pin_LED_1.c"
   1:.\Generated_Source\PSoC4/Pin_LED_1.c **** /*******************************************************************************
   2:.\Generated_Source\PSoC4/Pin_LED_1.c **** * File Name: Pin_LED_1.c  
   3:.\Generated_Source\PSoC4/Pin_LED_1.c **** * Version 2.10
   4:.\Generated_Source\PSoC4/Pin_LED_1.c **** *
   5:.\Generated_Source\PSoC4/Pin_LED_1.c **** * Description:
   6:.\Generated_Source\PSoC4/Pin_LED_1.c **** *  This file contains API to enable firmware control of a Pins component.
   7:.\Generated_Source\PSoC4/Pin_LED_1.c **** *
   8:.\Generated_Source\PSoC4/Pin_LED_1.c **** * Note:
   9:.\Generated_Source\PSoC4/Pin_LED_1.c **** *
  10:.\Generated_Source\PSoC4/Pin_LED_1.c **** ********************************************************************************
  11:.\Generated_Source\PSoC4/Pin_LED_1.c **** * Copyright 2008-2014, Cypress Semiconductor Corporation.  All rights reserved.
  12:.\Generated_Source\PSoC4/Pin_LED_1.c **** * You may use this file only in accordance with the license, terms, conditions, 
  13:.\Generated_Source\PSoC4/Pin_LED_1.c **** * disclaimers, and limitations in the end user license agreement accompanying 
  14:.\Generated_Source\PSoC4/Pin_LED_1.c **** * the software package with which this file was provided.
  15:.\Generated_Source\PSoC4/Pin_LED_1.c **** *******************************************************************************/
  16:.\Generated_Source\PSoC4/Pin_LED_1.c **** 
  17:.\Generated_Source\PSoC4/Pin_LED_1.c **** #include "cytypes.h"
  18:.\Generated_Source\PSoC4/Pin_LED_1.c **** #include "Pin_LED_1.h"
  19:.\Generated_Source\PSoC4/Pin_LED_1.c **** 
  20:.\Generated_Source\PSoC4/Pin_LED_1.c **** #define SetP4PinDriveMode(shift, mode)  \
  21:.\Generated_Source\PSoC4/Pin_LED_1.c ****     do { \
  22:.\Generated_Source\PSoC4/Pin_LED_1.c ****         Pin_LED_1_PC =   (Pin_LED_1_PC & \
  23:.\Generated_Source\PSoC4/Pin_LED_1.c ****                                 (uint32)(~(uint32)(Pin_LED_1_DRIVE_MODE_IND_MASK << (Pin_LED_1_DRIV
  24:.\Generated_Source\PSoC4/Pin_LED_1.c ****                                 (uint32)((uint32)(mode) << (Pin_LED_1_DRIVE_MODE_BITS * (shift))); 
  25:.\Generated_Source\PSoC4/Pin_LED_1.c ****     } while (0)
  26:.\Generated_Source\PSoC4/Pin_LED_1.c **** 
  27:.\Generated_Source\PSoC4/Pin_LED_1.c **** 
  28:.\Generated_Source\PSoC4/Pin_LED_1.c **** /*******************************************************************************
  29:.\Generated_Source\PSoC4/Pin_LED_1.c **** * Function Name: Pin_LED_1_Write
  30:.\Generated_Source\PSoC4/Pin_LED_1.c **** ********************************************************************************
  31:.\Generated_Source\PSoC4/Pin_LED_1.c **** *
  32:.\Generated_Source\PSoC4/Pin_LED_1.c **** * Summary:
ARM GAS  C:\Users\ADMINI~1\AppData\Local\Temp\ccN8uX6B.s 			page 2


  33:.\Generated_Source\PSoC4/Pin_LED_1.c **** *  Assign a new value to the digital port's data output register.  
  34:.\Generated_Source\PSoC4/Pin_LED_1.c **** *
  35:.\Generated_Source\PSoC4/Pin_LED_1.c **** * Parameters:  
  36:.\Generated_Source\PSoC4/Pin_LED_1.c **** *  prtValue:  The value to be assigned to the Digital Port. 
  37:.\Generated_Source\PSoC4/Pin_LED_1.c **** *
  38:.\Generated_Source\PSoC4/Pin_LED_1.c **** * Return: 
  39:.\Generated_Source\PSoC4/Pin_LED_1.c **** *  None 
  40:.\Generated_Source\PSoC4/Pin_LED_1.c **** *  
  41:.\Generated_Source\PSoC4/Pin_LED_1.c **** *******************************************************************************/
  42:.\Generated_Source\PSoC4/Pin_LED_1.c **** void Pin_LED_1_Write(uint8 value) 
  43:.\Generated_Source\PSoC4/Pin_LED_1.c **** {
  26              		.loc 1 43 0
  27              		.cfi_startproc
  28              	.LVL0:
  44:.\Generated_Source\PSoC4/Pin_LED_1.c ****     uint8 drVal = (uint8)(Pin_LED_1_DR & (uint8)(~Pin_LED_1_MASK));
  29              		.loc 1 44 0
  30 0000 0449     		ldr	r1, .L2
  31 0002 0A68     		ldr	r2, [r1]
  32 0004 BF23     		mov	r3, #191
  33 0006 1A40     		and	r2, r3
  34              	.LVL1:
  45:.\Generated_Source\PSoC4/Pin_LED_1.c ****     drVal = (drVal | ((uint8)(value << Pin_LED_1_SHIFT) & Pin_LED_1_MASK));
  35              		.loc 1 45 0
  36 0008 8001     		lsl	r0, r0, #6
  37              	.LVL2:
  38 000a 7F3B     		sub	r3, r3, #127
  39 000c 1840     		and	r0, r3
  40 000e 1043     		orr	r0, r2
  41              	.LVL3:
  46:.\Generated_Source\PSoC4/Pin_LED_1.c ****     Pin_LED_1_DR = (uint32)drVal;
  42              		.loc 1 46 0
  43 0010 0860     		str	r0, [r1]
  47:.\Generated_Source\PSoC4/Pin_LED_1.c **** }
  44              		.loc 1 47 0
  45              		@ sp needed
  46 0012 7047     		bx	lr
  47              	.L3:
  48              		.align	2
  49              	.L2:
  50 0014 00010440 		.word	1074004224
  51              		.cfi_endproc
  52              	.LFE0:
  53              		.size	Pin_LED_1_Write, .-Pin_LED_1_Write
  54              		.section	.text.Pin_LED_1_SetDriveMode,"ax",%progbits
  55              		.align	2
  56              		.global	Pin_LED_1_SetDriveMode
  57              		.code	16
  58              		.thumb_func
  59              		.type	Pin_LED_1_SetDriveMode, %function
  60              	Pin_LED_1_SetDriveMode:
  61              	.LFB1:
  48:.\Generated_Source\PSoC4/Pin_LED_1.c **** 
  49:.\Generated_Source\PSoC4/Pin_LED_1.c **** 
  50:.\Generated_Source\PSoC4/Pin_LED_1.c **** /*******************************************************************************
  51:.\Generated_Source\PSoC4/Pin_LED_1.c **** * Function Name: Pin_LED_1_SetDriveMode
  52:.\Generated_Source\PSoC4/Pin_LED_1.c **** ********************************************************************************
  53:.\Generated_Source\PSoC4/Pin_LED_1.c **** *
ARM GAS  C:\Users\ADMINI~1\AppData\Local\Temp\ccN8uX6B.s 			page 3


  54:.\Generated_Source\PSoC4/Pin_LED_1.c **** * Summary:
  55:.\Generated_Source\PSoC4/Pin_LED_1.c **** *  Change the drive mode on the pins of the port.
  56:.\Generated_Source\PSoC4/Pin_LED_1.c **** * 
  57:.\Generated_Source\PSoC4/Pin_LED_1.c **** * Parameters:  
  58:.\Generated_Source\PSoC4/Pin_LED_1.c **** *  mode:  Change the pins to one of the following drive modes.
  59:.\Generated_Source\PSoC4/Pin_LED_1.c **** *
  60:.\Generated_Source\PSoC4/Pin_LED_1.c **** *  Pin_LED_1_DM_STRONG     Strong Drive 
  61:.\Generated_Source\PSoC4/Pin_LED_1.c **** *  Pin_LED_1_DM_OD_HI      Open Drain, Drives High 
  62:.\Generated_Source\PSoC4/Pin_LED_1.c **** *  Pin_LED_1_DM_OD_LO      Open Drain, Drives Low 
  63:.\Generated_Source\PSoC4/Pin_LED_1.c **** *  Pin_LED_1_DM_RES_UP     Resistive Pull Up 
  64:.\Generated_Source\PSoC4/Pin_LED_1.c **** *  Pin_LED_1_DM_RES_DWN    Resistive Pull Down 
  65:.\Generated_Source\PSoC4/Pin_LED_1.c **** *  Pin_LED_1_DM_RES_UPDWN  Resistive Pull Up/Down 
  66:.\Generated_Source\PSoC4/Pin_LED_1.c **** *  Pin_LED_1_DM_DIG_HIZ    High Impedance Digital 
  67:.\Generated_Source\PSoC4/Pin_LED_1.c **** *  Pin_LED_1_DM_ALG_HIZ    High Impedance Analog 
  68:.\Generated_Source\PSoC4/Pin_LED_1.c **** *
  69:.\Generated_Source\PSoC4/Pin_LED_1.c **** * Return: 
  70:.\Generated_Source\PSoC4/Pin_LED_1.c **** *  None
  71:.\Generated_Source\PSoC4/Pin_LED_1.c **** *
  72:.\Generated_Source\PSoC4/Pin_LED_1.c **** *******************************************************************************/
  73:.\Generated_Source\PSoC4/Pin_LED_1.c **** void Pin_LED_1_SetDriveMode(uint8 mode) 
  74:.\Generated_Source\PSoC4/Pin_LED_1.c **** {
  62              		.loc 1 74 0
  63              		.cfi_startproc
  64              	.LVL4:
  75:.\Generated_Source\PSoC4/Pin_LED_1.c **** 	SetP4PinDriveMode(Pin_LED_1__0__SHIFT, mode);
  65              		.loc 1 75 0
  66 0000 034A     		ldr	r2, .L5
  67 0002 1168     		ldr	r1, [r2]
  68 0004 034B     		ldr	r3, .L5+4
  69 0006 0B40     		and	r3, r1
  70 0008 8004     		lsl	r0, r0, #18
  71              	.LVL5:
  72 000a 1843     		orr	r0, r3
  73 000c 1060     		str	r0, [r2]
  76:.\Generated_Source\PSoC4/Pin_LED_1.c **** }
  74              		.loc 1 76 0
  75              		@ sp needed
  76 000e 7047     		bx	lr
  77              	.L6:
  78              		.align	2
  79              	.L5:
  80 0010 08010440 		.word	1074004232
  81 0014 FFFFE3FF 		.word	-1835009
  82              		.cfi_endproc
  83              	.LFE1:
  84              		.size	Pin_LED_1_SetDriveMode, .-Pin_LED_1_SetDriveMode
  85              		.section	.text.Pin_LED_1_Read,"ax",%progbits
  86              		.align	2
  87              		.global	Pin_LED_1_Read
  88              		.code	16
  89              		.thumb_func
  90              		.type	Pin_LED_1_Read, %function
  91              	Pin_LED_1_Read:
  92              	.LFB2:
  77:.\Generated_Source\PSoC4/Pin_LED_1.c **** 
  78:.\Generated_Source\PSoC4/Pin_LED_1.c **** 
  79:.\Generated_Source\PSoC4/Pin_LED_1.c **** /*******************************************************************************
ARM GAS  C:\Users\ADMINI~1\AppData\Local\Temp\ccN8uX6B.s 			page 4


  80:.\Generated_Source\PSoC4/Pin_LED_1.c **** * Function Name: Pin_LED_1_Read
  81:.\Generated_Source\PSoC4/Pin_LED_1.c **** ********************************************************************************
  82:.\Generated_Source\PSoC4/Pin_LED_1.c **** *
  83:.\Generated_Source\PSoC4/Pin_LED_1.c **** * Summary:
  84:.\Generated_Source\PSoC4/Pin_LED_1.c **** *  Read the current value on the pins of the Digital Port in right justified 
  85:.\Generated_Source\PSoC4/Pin_LED_1.c **** *  form.
  86:.\Generated_Source\PSoC4/Pin_LED_1.c **** *
  87:.\Generated_Source\PSoC4/Pin_LED_1.c **** * Parameters:  
  88:.\Generated_Source\PSoC4/Pin_LED_1.c **** *  None 
  89:.\Generated_Source\PSoC4/Pin_LED_1.c **** *
  90:.\Generated_Source\PSoC4/Pin_LED_1.c **** * Return: 
  91:.\Generated_Source\PSoC4/Pin_LED_1.c **** *  Returns the current value of the Digital Port as a right justified number
  92:.\Generated_Source\PSoC4/Pin_LED_1.c **** *  
  93:.\Generated_Source\PSoC4/Pin_LED_1.c **** * Note:
  94:.\Generated_Source\PSoC4/Pin_LED_1.c **** *  Macro Pin_LED_1_ReadPS calls this function. 
  95:.\Generated_Source\PSoC4/Pin_LED_1.c **** *  
  96:.\Generated_Source\PSoC4/Pin_LED_1.c **** *******************************************************************************/
  97:.\Generated_Source\PSoC4/Pin_LED_1.c **** uint8 Pin_LED_1_Read(void) 
  98:.\Generated_Source\PSoC4/Pin_LED_1.c **** {
  93              		.loc 1 98 0
  94              		.cfi_startproc
  99:.\Generated_Source\PSoC4/Pin_LED_1.c ****     return (uint8)((Pin_LED_1_PS & Pin_LED_1_MASK) >> Pin_LED_1_SHIFT);
  95              		.loc 1 99 0
  96 0000 024B     		ldr	r3, .L8
  97 0002 1868     		ldr	r0, [r3]
  98 0004 4006     		lsl	r0, r0, #25
  99 0006 C00F     		lsr	r0, r0, #31
 100:.\Generated_Source\PSoC4/Pin_LED_1.c **** }
 100              		.loc 1 100 0
 101              		@ sp needed
 102 0008 7047     		bx	lr
 103              	.L9:
 104 000a C046     		.align	2
 105              	.L8:
 106 000c 04010440 		.word	1074004228
 107              		.cfi_endproc
 108              	.LFE2:
 109              		.size	Pin_LED_1_Read, .-Pin_LED_1_Read
 110              		.section	.text.Pin_LED_1_ReadDataReg,"ax",%progbits
 111              		.align	2
 112              		.global	Pin_LED_1_ReadDataReg
 113              		.code	16
 114              		.thumb_func
 115              		.type	Pin_LED_1_ReadDataReg, %function
 116              	Pin_LED_1_ReadDataReg:
 117              	.LFB3:
 101:.\Generated_Source\PSoC4/Pin_LED_1.c **** 
 102:.\Generated_Source\PSoC4/Pin_LED_1.c **** 
 103:.\Generated_Source\PSoC4/Pin_LED_1.c **** /*******************************************************************************
 104:.\Generated_Source\PSoC4/Pin_LED_1.c **** * Function Name: Pin_LED_1_ReadDataReg
 105:.\Generated_Source\PSoC4/Pin_LED_1.c **** ********************************************************************************
 106:.\Generated_Source\PSoC4/Pin_LED_1.c **** *
 107:.\Generated_Source\PSoC4/Pin_LED_1.c **** * Summary:
 108:.\Generated_Source\PSoC4/Pin_LED_1.c **** *  Read the current value assigned to a Digital Port's data output register
 109:.\Generated_Source\PSoC4/Pin_LED_1.c **** *
 110:.\Generated_Source\PSoC4/Pin_LED_1.c **** * Parameters:  
 111:.\Generated_Source\PSoC4/Pin_LED_1.c **** *  None 
ARM GAS  C:\Users\ADMINI~1\AppData\Local\Temp\ccN8uX6B.s 			page 5


 112:.\Generated_Source\PSoC4/Pin_LED_1.c **** *
 113:.\Generated_Source\PSoC4/Pin_LED_1.c **** * Return: 
 114:.\Generated_Source\PSoC4/Pin_LED_1.c **** *  Returns the current value assigned to the Digital Port's data output register
 115:.\Generated_Source\PSoC4/Pin_LED_1.c **** *  
 116:.\Generated_Source\PSoC4/Pin_LED_1.c **** *******************************************************************************/
 117:.\Generated_Source\PSoC4/Pin_LED_1.c **** uint8 Pin_LED_1_ReadDataReg(void) 
 118:.\Generated_Source\PSoC4/Pin_LED_1.c **** {
 118              		.loc 1 118 0
 119              		.cfi_startproc
 119:.\Generated_Source\PSoC4/Pin_LED_1.c ****     return (uint8)((Pin_LED_1_DR & Pin_LED_1_MASK) >> Pin_LED_1_SHIFT);
 120              		.loc 1 119 0
 121 0000 024B     		ldr	r3, .L11
 122 0002 1868     		ldr	r0, [r3]
 123 0004 4006     		lsl	r0, r0, #25
 124 0006 C00F     		lsr	r0, r0, #31
 120:.\Generated_Source\PSoC4/Pin_LED_1.c **** }
 125              		.loc 1 120 0
 126              		@ sp needed
 127 0008 7047     		bx	lr
 128              	.L12:
 129 000a C046     		.align	2
 130              	.L11:
 131 000c 00010440 		.word	1074004224
 132              		.cfi_endproc
 133              	.LFE3:
 134              		.size	Pin_LED_1_ReadDataReg, .-Pin_LED_1_ReadDataReg
 135              		.section	.text.Pin_LED_1_ClearInterrupt,"ax",%progbits
 136              		.align	2
 137              		.global	Pin_LED_1_ClearInterrupt
 138              		.code	16
 139              		.thumb_func
 140              		.type	Pin_LED_1_ClearInterrupt, %function
 141              	Pin_LED_1_ClearInterrupt:
 142              	.LFB4:
 121:.\Generated_Source\PSoC4/Pin_LED_1.c **** 
 122:.\Generated_Source\PSoC4/Pin_LED_1.c **** 
 123:.\Generated_Source\PSoC4/Pin_LED_1.c **** /* If Interrupts Are Enabled for this Pins component */ 
 124:.\Generated_Source\PSoC4/Pin_LED_1.c **** #if defined(Pin_LED_1_INTSTAT) 
 125:.\Generated_Source\PSoC4/Pin_LED_1.c **** 
 126:.\Generated_Source\PSoC4/Pin_LED_1.c ****     /*******************************************************************************
 127:.\Generated_Source\PSoC4/Pin_LED_1.c ****     * Function Name: Pin_LED_1_ClearInterrupt
 128:.\Generated_Source\PSoC4/Pin_LED_1.c ****     ********************************************************************************
 129:.\Generated_Source\PSoC4/Pin_LED_1.c ****     *
 130:.\Generated_Source\PSoC4/Pin_LED_1.c ****     * Summary:
 131:.\Generated_Source\PSoC4/Pin_LED_1.c ****     *  Clears any active interrupts attached to port and returns the value of the 
 132:.\Generated_Source\PSoC4/Pin_LED_1.c ****     *  interrupt status register.
 133:.\Generated_Source\PSoC4/Pin_LED_1.c ****     *
 134:.\Generated_Source\PSoC4/Pin_LED_1.c ****     * Parameters:  
 135:.\Generated_Source\PSoC4/Pin_LED_1.c ****     *  None 
 136:.\Generated_Source\PSoC4/Pin_LED_1.c ****     *
 137:.\Generated_Source\PSoC4/Pin_LED_1.c ****     * Return: 
 138:.\Generated_Source\PSoC4/Pin_LED_1.c ****     *  Returns the value of the interrupt status register
 139:.\Generated_Source\PSoC4/Pin_LED_1.c ****     *  
 140:.\Generated_Source\PSoC4/Pin_LED_1.c ****     *******************************************************************************/
 141:.\Generated_Source\PSoC4/Pin_LED_1.c ****     uint8 Pin_LED_1_ClearInterrupt(void) 
 142:.\Generated_Source\PSoC4/Pin_LED_1.c ****     {
 143              		.loc 1 142 0
ARM GAS  C:\Users\ADMINI~1\AppData\Local\Temp\ccN8uX6B.s 			page 6


 144              		.cfi_startproc
 143:.\Generated_Source\PSoC4/Pin_LED_1.c **** 		uint8 maskedStatus = (uint8)(Pin_LED_1_INTSTAT & Pin_LED_1_MASK);
 145              		.loc 1 143 0
 146 0000 034A     		ldr	r2, .L14
 147 0002 1068     		ldr	r0, [r2]
 148 0004 4023     		mov	r3, #64
 149 0006 1840     		and	r0, r3
 150              	.LVL6:
 144:.\Generated_Source\PSoC4/Pin_LED_1.c **** 		Pin_LED_1_INTSTAT = maskedStatus;
 151              		.loc 1 144 0
 152 0008 1060     		str	r0, [r2]
 145:.\Generated_Source\PSoC4/Pin_LED_1.c ****         return maskedStatus >> Pin_LED_1_SHIFT;
 153              		.loc 1 145 0
 154 000a 8009     		lsr	r0, r0, #6
 155              	.LVL7:
 156 000c C0B2     		uxtb	r0, r0
 146:.\Generated_Source\PSoC4/Pin_LED_1.c ****     }
 157              		.loc 1 146 0
 158              		@ sp needed
 159 000e 7047     		bx	lr
 160              	.L15:
 161              		.align	2
 162              	.L14:
 163 0010 10010440 		.word	1074004240
 164              		.cfi_endproc
 165              	.LFE4:
 166              		.size	Pin_LED_1_ClearInterrupt, .-Pin_LED_1_ClearInterrupt
 167              		.text
 168              	.Letext0:
 169              		.file 2 ".\\Generated_Source\\PSoC4\\cytypes.h"
