ARM GAS  C:\Users\ADMINI~1\AppData\Local\Temp\ccpnpHMZ.s 			page 1


   1              		.cpu cortex-m0
   2              		.fpu softvfp
   3              		.eabi_attribute 20, 1
   4              		.eabi_attribute 21, 1
   5              		.eabi_attribute 23, 3
   6              		.eabi_attribute 24, 1
   7              		.eabi_attribute 25, 1
   8              		.eabi_attribute 26, 1
   9              		.eabi_attribute 30, 6
  10              		.eabi_attribute 34, 0
  11              		.eabi_attribute 18, 4
  12              		.code	16
  13              		.file	"Vref_PM.c"
  14              		.text
  15              	.Ltext0:
  16              		.cfi_sections	.debug_frame
  17              		.bss
  18              		.align	2
  19              	Vref_backup:
  20 0000 00000000 		.space	12
  20      00000000 
  20      00000000 
  21              		.section	.text.Vref_Sleep,"ax",%progbits
  22              		.align	2
  23              		.global	Vref_Sleep
  24              		.code	16
  25              		.thumb_func
  26              		.type	Vref_Sleep, %function
  27              	Vref_Sleep:
  28              	.LFB0:
  29              		.file 1 ".\\Generated_Source\\PSoC4\\Vref_PM.c"
   1:.\Generated_Source\PSoC4/Vref_PM.c **** /*******************************************************************************
   2:.\Generated_Source\PSoC4/Vref_PM.c **** * File Name: Vref.c  
   3:.\Generated_Source\PSoC4/Vref_PM.c **** * Version 2.20
   4:.\Generated_Source\PSoC4/Vref_PM.c **** *
   5:.\Generated_Source\PSoC4/Vref_PM.c **** * Description:
   6:.\Generated_Source\PSoC4/Vref_PM.c **** *  This file contains APIs to set up the Pins component for low power modes.
   7:.\Generated_Source\PSoC4/Vref_PM.c **** *
   8:.\Generated_Source\PSoC4/Vref_PM.c **** * Note:
   9:.\Generated_Source\PSoC4/Vref_PM.c **** *
  10:.\Generated_Source\PSoC4/Vref_PM.c **** ********************************************************************************
  11:.\Generated_Source\PSoC4/Vref_PM.c **** * Copyright 2015, Cypress Semiconductor Corporation.  All rights reserved.
  12:.\Generated_Source\PSoC4/Vref_PM.c **** * You may use this file only in accordance with the license, terms, conditions, 
  13:.\Generated_Source\PSoC4/Vref_PM.c **** * disclaimers, and limitations in the end user license agreement accompanying 
  14:.\Generated_Source\PSoC4/Vref_PM.c **** * the software package with which this file was provided.
  15:.\Generated_Source\PSoC4/Vref_PM.c **** *******************************************************************************/
  16:.\Generated_Source\PSoC4/Vref_PM.c **** 
  17:.\Generated_Source\PSoC4/Vref_PM.c **** #include "cytypes.h"
  18:.\Generated_Source\PSoC4/Vref_PM.c **** #include "Vref.h"
  19:.\Generated_Source\PSoC4/Vref_PM.c **** 
  20:.\Generated_Source\PSoC4/Vref_PM.c **** static Vref_BACKUP_STRUCT  Vref_backup = {0u, 0u, 0u};
  21:.\Generated_Source\PSoC4/Vref_PM.c **** 
  22:.\Generated_Source\PSoC4/Vref_PM.c **** 
  23:.\Generated_Source\PSoC4/Vref_PM.c **** /*******************************************************************************
  24:.\Generated_Source\PSoC4/Vref_PM.c **** * Function Name: Vref_Sleep
  25:.\Generated_Source\PSoC4/Vref_PM.c **** ****************************************************************************//**
  26:.\Generated_Source\PSoC4/Vref_PM.c **** *
ARM GAS  C:\Users\ADMINI~1\AppData\Local\Temp\ccpnpHMZ.s 			page 2


  27:.\Generated_Source\PSoC4/Vref_PM.c **** * \brief Stores the pin configuration and prepares the pin for entering chip 
  28:.\Generated_Source\PSoC4/Vref_PM.c **** *  deep-sleep/hibernate modes. This function must be called for SIO and USBIO
  29:.\Generated_Source\PSoC4/Vref_PM.c **** *  pins. It is not essential if using GPIO or GPIO_OVT pins.
  30:.\Generated_Source\PSoC4/Vref_PM.c **** *
  31:.\Generated_Source\PSoC4/Vref_PM.c **** * <b>Note</b> This function is available in PSoC 4 only.
  32:.\Generated_Source\PSoC4/Vref_PM.c **** *
  33:.\Generated_Source\PSoC4/Vref_PM.c **** * \return 
  34:.\Generated_Source\PSoC4/Vref_PM.c **** *  None 
  35:.\Generated_Source\PSoC4/Vref_PM.c **** *  
  36:.\Generated_Source\PSoC4/Vref_PM.c **** * \sideeffect
  37:.\Generated_Source\PSoC4/Vref_PM.c **** *  For SIO pins, this function configures the pin input threshold to CMOS and
  38:.\Generated_Source\PSoC4/Vref_PM.c **** *  drive level to Vddio. This is needed for SIO pins when in device 
  39:.\Generated_Source\PSoC4/Vref_PM.c **** *  deep-sleep/hibernate modes.
  40:.\Generated_Source\PSoC4/Vref_PM.c **** *
  41:.\Generated_Source\PSoC4/Vref_PM.c **** * \funcusage
  42:.\Generated_Source\PSoC4/Vref_PM.c **** *  \snippet Vref_SUT.c usage_Vref_Sleep_Wakeup
  43:.\Generated_Source\PSoC4/Vref_PM.c **** *******************************************************************************/
  44:.\Generated_Source\PSoC4/Vref_PM.c **** void Vref_Sleep(void)
  45:.\Generated_Source\PSoC4/Vref_PM.c **** {
  30              		.loc 1 45 0
  31              		.cfi_startproc
  32 0000 80B5     		push	{r7, lr}
  33              		.cfi_def_cfa_offset 8
  34              		.cfi_offset 7, -8
  35              		.cfi_offset 14, -4
  36 0002 00AF     		add	r7, sp, #0
  37              		.cfi_def_cfa_register 7
  46:.\Generated_Source\PSoC4/Vref_PM.c ****     #if defined(Vref__PC)
  47:.\Generated_Source\PSoC4/Vref_PM.c ****         Vref_backup.pcState = Vref_PC;
  38              		.loc 1 47 0
  39 0004 024B     		ldr	r3, .L2
  40 0006 1A68     		ldr	r2, [r3]
  41 0008 024B     		ldr	r3, .L2+4
  42 000a 1A60     		str	r2, [r3]
  48:.\Generated_Source\PSoC4/Vref_PM.c ****     #else
  49:.\Generated_Source\PSoC4/Vref_PM.c ****         #if (CY_PSOC4_4200L)
  50:.\Generated_Source\PSoC4/Vref_PM.c ****             /* Save the regulator state and put the PHY into suspend mode */
  51:.\Generated_Source\PSoC4/Vref_PM.c ****             Vref_backup.usbState = Vref_CR1_REG;
  52:.\Generated_Source\PSoC4/Vref_PM.c ****             Vref_USB_POWER_REG |= Vref_USBIO_ENTER_SLEEP;
  53:.\Generated_Source\PSoC4/Vref_PM.c ****             Vref_CR1_REG &= Vref_USBIO_CR1_OFF;
  54:.\Generated_Source\PSoC4/Vref_PM.c ****         #endif
  55:.\Generated_Source\PSoC4/Vref_PM.c ****     #endif
  56:.\Generated_Source\PSoC4/Vref_PM.c ****     #if defined(CYIPBLOCK_m0s8ioss_VERSION) && defined(Vref__SIO)
  57:.\Generated_Source\PSoC4/Vref_PM.c ****         Vref_backup.sioState = Vref_SIO_REG;
  58:.\Generated_Source\PSoC4/Vref_PM.c ****         /* SIO requires unregulated output buffer and single ended input buffer */
  59:.\Generated_Source\PSoC4/Vref_PM.c ****         Vref_SIO_REG &= (uint32)(~Vref_SIO_LPM_MASK);
  60:.\Generated_Source\PSoC4/Vref_PM.c ****     #endif  
  61:.\Generated_Source\PSoC4/Vref_PM.c **** }
  43              		.loc 1 61 0
  44 000c BD46     		mov	sp, r7
  45              		@ sp needed
  46 000e 80BD     		pop	{r7, pc}
  47              	.L3:
  48              		.align	2
  49              	.L2:
  50 0010 08030440 		.word	1074004744
  51 0014 00000000 		.word	Vref_backup
ARM GAS  C:\Users\ADMINI~1\AppData\Local\Temp\ccpnpHMZ.s 			page 3


  52              		.cfi_endproc
  53              	.LFE0:
  54              		.size	Vref_Sleep, .-Vref_Sleep
  55              		.section	.text.Vref_Wakeup,"ax",%progbits
  56              		.align	2
  57              		.global	Vref_Wakeup
  58              		.code	16
  59              		.thumb_func
  60              		.type	Vref_Wakeup, %function
  61              	Vref_Wakeup:
  62              	.LFB1:
  62:.\Generated_Source\PSoC4/Vref_PM.c **** 
  63:.\Generated_Source\PSoC4/Vref_PM.c **** 
  64:.\Generated_Source\PSoC4/Vref_PM.c **** /*******************************************************************************
  65:.\Generated_Source\PSoC4/Vref_PM.c **** * Function Name: Vref_Wakeup
  66:.\Generated_Source\PSoC4/Vref_PM.c **** ****************************************************************************//**
  67:.\Generated_Source\PSoC4/Vref_PM.c **** *
  68:.\Generated_Source\PSoC4/Vref_PM.c **** * \brief Restores the pin configuration that was saved during Pin_Sleep().
  69:.\Generated_Source\PSoC4/Vref_PM.c **** *
  70:.\Generated_Source\PSoC4/Vref_PM.c **** * For USBIO pins, the wakeup is only triggered for falling edge interrupts.
  71:.\Generated_Source\PSoC4/Vref_PM.c **** *
  72:.\Generated_Source\PSoC4/Vref_PM.c **** * <b>Note</b> This function is available in PSoC 4 only.
  73:.\Generated_Source\PSoC4/Vref_PM.c **** *
  74:.\Generated_Source\PSoC4/Vref_PM.c **** * \return 
  75:.\Generated_Source\PSoC4/Vref_PM.c **** *  None
  76:.\Generated_Source\PSoC4/Vref_PM.c **** *  
  77:.\Generated_Source\PSoC4/Vref_PM.c **** * \funcusage
  78:.\Generated_Source\PSoC4/Vref_PM.c **** *  Refer to Vref_Sleep() for an example usage.
  79:.\Generated_Source\PSoC4/Vref_PM.c **** *******************************************************************************/
  80:.\Generated_Source\PSoC4/Vref_PM.c **** void Vref_Wakeup(void)
  81:.\Generated_Source\PSoC4/Vref_PM.c **** {
  63              		.loc 1 81 0
  64              		.cfi_startproc
  65 0000 80B5     		push	{r7, lr}
  66              		.cfi_def_cfa_offset 8
  67              		.cfi_offset 7, -8
  68              		.cfi_offset 14, -4
  69 0002 00AF     		add	r7, sp, #0
  70              		.cfi_def_cfa_register 7
  82:.\Generated_Source\PSoC4/Vref_PM.c ****     #if defined(Vref__PC)
  83:.\Generated_Source\PSoC4/Vref_PM.c ****         Vref_PC = Vref_backup.pcState;
  71              		.loc 1 83 0
  72 0004 024A     		ldr	r2, .L5
  73 0006 034B     		ldr	r3, .L5+4
  74 0008 1B68     		ldr	r3, [r3]
  75 000a 1360     		str	r3, [r2]
  84:.\Generated_Source\PSoC4/Vref_PM.c ****     #else
  85:.\Generated_Source\PSoC4/Vref_PM.c ****         #if (CY_PSOC4_4200L)
  86:.\Generated_Source\PSoC4/Vref_PM.c ****             /* Restore the regulator state and come out of suspend mode */
  87:.\Generated_Source\PSoC4/Vref_PM.c ****             Vref_USB_POWER_REG &= Vref_USBIO_EXIT_SLEEP_PH1;
  88:.\Generated_Source\PSoC4/Vref_PM.c ****             Vref_CR1_REG = Vref_backup.usbState;
  89:.\Generated_Source\PSoC4/Vref_PM.c ****             Vref_USB_POWER_REG &= Vref_USBIO_EXIT_SLEEP_PH2;
  90:.\Generated_Source\PSoC4/Vref_PM.c ****         #endif
  91:.\Generated_Source\PSoC4/Vref_PM.c ****     #endif
  92:.\Generated_Source\PSoC4/Vref_PM.c ****     #if defined(CYIPBLOCK_m0s8ioss_VERSION) && defined(Vref__SIO)
  93:.\Generated_Source\PSoC4/Vref_PM.c ****         Vref_SIO_REG = Vref_backup.sioState;
  94:.\Generated_Source\PSoC4/Vref_PM.c ****     #endif
ARM GAS  C:\Users\ADMINI~1\AppData\Local\Temp\ccpnpHMZ.s 			page 4


  95:.\Generated_Source\PSoC4/Vref_PM.c **** }
  76              		.loc 1 95 0
  77 000c BD46     		mov	sp, r7
  78              		@ sp needed
  79 000e 80BD     		pop	{r7, pc}
  80              	.L6:
  81              		.align	2
  82              	.L5:
  83 0010 08030440 		.word	1074004744
  84 0014 00000000 		.word	Vref_backup
  85              		.cfi_endproc
  86              	.LFE1:
  87              		.size	Vref_Wakeup, .-Vref_Wakeup
  88              		.text
  89              	.Letext0:
  90              		.file 2 ".\\Generated_Source\\PSoC4\\cytypes.h"
  91              		.file 3 ".\\Generated_Source\\PSoC4\\Vref.h"
